:020000040000FA
:100000000C942A050C9452050C9452050C9452053C
:100010000C9452050C9452050C9452050C94520504
:100020000C9452050C9452050C9452050C945205F4
:100030000C9452050C9452050C9452050C945205E4
:100040000C94C8290C9452050C94382A0C94122A4A
:100050000C9452050C9452050C9452050C945205C4
:100060000C946A2A0C945205204300204F4B200028
:100070002020202020202020202073616D706C65BE
:10008000206F757473696465206578706563746545
:10009000642072616E67652E0020202020202020C1
:1000A0002020206E616E203D206F70656E205443CD
:1000B0002C2062616420636869702C206F7220625A
:1000C000616420706F7765722E0020432C20636876
:1000D00065636B2000204641494C2073616D706C54
:1000E000653D0000000000003E5B4F5B3E3E6B4FF5
:1000F0006B3E1C3E7C3E1C183C7E3C181C577D57BA
:100100001C1C5E7F5E1C00183C1800FFE7C3E7FF65
:100110000018241800FFE7DBE7FF30483A060E26F8
:1001200029792926407F050507407F05253F5A3C50
:10013000E73C5A7F3E1C1C08081C1C3E7F14227F93
:1001400022145F5F005F5F06097F017F006689956B
:100150006A606060606094A2FFA29408047E040854
:1001600010207E201008082A1C08081C2A08081ED7
:10017000101010100C1E0C1E0C30383E3830060EBD
:100180003E0E06000000000000005F0000000700B7
:100190000700147F147F14242A7F2A122313086473
:1001A0006236495620500008070300001C22410017
:1001B0000041221C002A1C7F1C2A08083E08080057
:1001C00080703000080808080800006060002010F7
:1001D0000804023E5149453E00427F4000724949B1
:1001E00049462141494D331814127F102745454592
:1001F000393C4A49493141211109073649494936B3
:10020000464949291E000014000000403400000047
:100210000814224114141414140041221408020179
:100220005909063E415D594E7C1211127C7F4949A5
:1002300049363E414141227F4141413E7F49494942
:10024000417F090909013E414151737F0808087F38
:1002500000417F41002040413F017F081422417F3F
:10026000404040407F021C027F7F0408107F3E41D7
:1002700041413E7F090909063E4151215E7F09192E
:100280002946264949493203017F01033F40404046
:100290003F1F2040201F3F4038403F631408146335
:1002A00003047804036159494D43007F41414102F1
:1002B00004081020004141417F0402010204404033
:1002C000404040000307080020545478407F2844F1
:1002D00044383844444428384444287F38545454DB
:1002E0001800087E090218A4A49C787F08040478EA
:1002F00000447D40002040403D007F102844000025
:10030000417F40007C047804787C080404783844F9
:10031000444438FC1824241818242418FC7C0804AD
:100320000408485454542404043F44243C404020CE
:100330007C1C2040201C3C4030403C442810284479
:100340004C9090907C4464544C440008364100002A
:1003500000770000004136080002010204023C263A
:1003600023263C1EA1A161123A4040207A38545401
:100370005559215555794122545478422155547884
:100380004020545579400C1E52721239555555591A
:10039000395454545939555454580000457C41003F
:1003A00002457D420001457C407D1211127DF028FE
:1003B0002528F07C545545002054547C547C0A096F
:1003C0007F4932494949323A4444443A324A4848DA
:1003D000303A4141217A3A42402078009DA0A07DE8
:1003E0003D4242423D3D4040403D3C24FF242448A4
:1003F0007E4943662B2FFC2F2BFF0929F620C0884E
:100400007E090320545479410000447D413048481E
:100410004A32384040227A007A0A0A727D0D193138
:100420007D2629292F28262929292630484D402094
:10043000380808080808080808382F10C8ACBA2F70
:10044000102834FA00007B000008142A1422221419
:100450002A14085500550055AA55AA55AAFF55FF5C
:1004600055FF000000FF00101010FF00141414FFCF
:10047000001010FF00FF1010F010F0141414FC0016
:100480001414F700FF0000FF00FF1414F404FC1420
:100490001417101F10101F101F1414141F00101019
:1004A00010F0000000001F101010101F101010108E
:1004B000F010000000FF101010101010101010FFAE
:1004C00010000000FF140000FF00FF00001F1017C5
:1004D0000000FC04F414141710171414F404F400AE
:1004E00000FF00F714141414141414F700F7141474
:1004F00014171410101F101F141414F4141010F0FB
:1005000010F000001F101F0000001F14000000FC6E
:10051000140000F010F01010FF10FF141414FF145A
:100520001010101F00000000F010FFFFFFFFFFF091
:10053000F0F0F0F0FFFFFF0000000000FFFF0F0FE2
:100540000F0F0F3844443844FC4A4A4A347E0202B2
:100550000606027E027E0263554941633844443CEC
:1005600004407E201E2006027E020299A5E7A5997E
:100570001C2A492A1C4C7201724C304A4D4D3030B5
:1005800048784830BC625A463D3E494949007E01A0
:1005900001017E2A2A2A2A2A44445F444440514ABF
:1005A000444040444A51400000FF0103E080FF0006
:1005B0000008086B6B083612362436060F090F0642
:1005C000000018180000001010003040FF0101006A
:1005D0001F01011E00191D1712003C3C3C3C00008D
:1005E0000000000901809611800A3A81550A3601FF
:1005F000082A04000000F02B040000014021800ABA
:1006000013800A29800A0A0B0C0D0E0F5B53454E0E
:10061000534F52535D205761697420353030206D3F
:100620007320666F72204D4158363637352073740B
:1006300061727475702E2E2E005B524144494F5DDD
:100640002052463234204641494C2E20436865638F
:100650006B203356332C204345392C2043534E31E5
:10066000302C205350492C20313075462E005B52DF
:100670004144494F5D205246323420535049204F67
:100680004B3B2077616974696E6720666F72206DDD
:1006900061696E2D626F782E005B424F4F545D2072
:1006A0005446542073686F756C6420666C6173687F
:1006B000205247422C207468656E2073686F772043
:1006C00052454D4F544520444153482E005B424F04
:1006D0004F545D20544654202041312F41322F4148
:1006E000332053504931312F313320424C3556009D
:1006F0005B424F4F545D20524632342043453920EF
:1007000043534E31302053504931312F31322F3144
:1007100033005B424F4F545D2054432052455320D9
:100720002044352F44382F4130005B424F4F545DF9
:10073000205443204D41494E2044352F44362F4408
:1007400037005B424F4F545D204E6F2062757474CA
:100750006F6E73206973204F4B3B2044322F44331C
:100760002F4434207573652070756C6C7570732E12
:10077000003D3D3D3D2052454D4F544520485720BA
:10078000434845434B203D3D3D3D00204147453DCD
:10079000002052583D00205446542054583D0046F5
:1007A00041494C004F4B002F5458004E4F494E4981
:1007B00054004641494C20004F4B20002052463DFA
:1007C000004641494C20004F4B200020523D005B29
:1007D000485D204D3D00526164696F20686172641C
:1007E00077617265206E6F7420696E697469616CDF
:1007F000697A65640057616974696E6720666F7213
:10080000206D61696E2D626F7820737461747573E9
:10081000004C696E6B2074696D656F7574004C696E
:100820006E6B206465677261646564004C696E6B11
:1008300020726573746F726564005B53454E534F4D
:1008400052535D20524553206661696C202D3E2035
:10085000636865636B2044382C2041302C2054435E
:10086000322E005B53454E534F52535D204D41494C
:100870004E206661696C202D3E20636865636B20A5
:1008800044362C2044372C205443312E005B5345F2
:100890004E534F52535D20424F5448206661696C5D
:1008A000202D3E20636865636B2073686172656408
:1008B0002044352C2035562C20474E442E004435FC
:1008C0002F44382F41302C2035562C20474E442CB5
:1008D00020746865726D6F636F75706C652023326C
:1008E000002020524553203A0044352F44362F44EF
:1008F000372C2035562C20474E442C2074686572C6
:100900006D6F636F75706C652023310020204D4141
:10091000494E3A005B53454E534F52535D20466952
:10092000727374204D4158363637352072656164D4
:10093000696E67733A0000000000240027002A0057
:10094000000000002300260029000000000800022B
:1009500001000003040700000000000000006E61B9
:100960006E0000010203040542414E44005245530B
:10097000004D41494E0041545350004D4F444500F5
:1009800053454C0042544E0052554E00524144498A
:100990004F0052454D4F5445204441534800524565
:1009A00053004D41494E0053543A005452443A00CA
:1009B00053443A005241573A0064543A0053503A73
:1009C000002020003E20002A2000524553004D41C7
:1009D000494E002020003E20002A20004E4F0059A2
:1009E0004553004552520045525200564945570062
:1009F00053455400524553004D41494E002D2D00A2
:100A0000455252002B00455252004E4F20494E494C
:100A100054005458204641494C005458204F4B0034
:100A20000102040810204080010204081020010285
:100A30000408102000000000250028002B000404FA
:100A40000404040404040202020202020303030376
:100A50000303852B11241FBECFEFD8E0DEBFCDBF2F
:100A600024E0A0ECB1E001C01D92A739B207E1F784
:100A700011E0A0E0B1E0E8E9F4E702C005900D92D2
:100A8000A03CB107D9F715E0CAE2D5E004C0219730
:100A9000FE010E940F3AC932D107C9F70E94B02C5B
:100AA0000C944A3A0C9400000F931F932091CE02AD
:100AB000222309F12091D0022223F9F0009124038E
:100AC000109125032091260330912703DC01CB01EF
:100AD000801B910BA20BB30B853823E09207A10575
:100AE000B10568F0813D9740A105B10550F084E063
:100AF0001F910F91089580E0FBCF81E0F9CF82E054
:100B0000F7CF83E0F5CF833081F028F4813099F07E
:100B10008230A9F008958730A9F08830C9F0843078
:100B2000B1F4809180008F7D03C0809180008F7729
:100B300080938000089584B58F7784BD089584B52F
:100B40008F7DFBCF8091B0008F778093B0000895A8
:100B50008091B0008F7DF9CFCF93DF93282F30E0C5
:100B6000F901E65BF64F8491F901E05EF54FD4910F
:100B7000F901E25CF54FC491CC23A1F081110E94F0
:100B80008305EC2FF0E0EE0FFF1FE05CF64FA59120
:100B9000B491EC91ED2381E090E009F480E0DF91E5
:100BA000CF91089580E090E0FACF1F93CF93DF9329
:100BB000282F30E0F901E65BF64F8491F901E05E01
:100BC000F54FD491F901E25CF54FC491CC23A9F023
:100BD000162F81110E948305EC2FF0E0EE0FFF1F0E
:100BE000EC5CF54FA591B4918FB7F894EC9111118D
:100BF00008C0D095DE23DC938FBFDF91CF911F918A
:100C00000895DE2BF8CF682F80912A040E94D50525
:100C100080914604909147048230910538F0880F06
:100C2000991F880F991F05970197F1F70895682F6D
:100C30008091290490912A0489130C94D505089574
:100C4000CF93DF9390E0FC01E05EF54F2491825C4E
:100C5000954FFC0184918823C9F090E0880F991F7B
:100C6000FC01EA5CF64FA591B491FC01EC5CF54FF8
:100C7000C591D49161110DC09FB7F8948C912095C6
:100C800082238C938881282328839FBFDF91CF9173
:100C90000895623051F49FB7F8943C91822F80956B
:100CA00083238C93E8812E2BEFCF8FB7F894EC91B0
:100CB0002E2B2C938FBFEACF3FB7F8948091390247
:100CC00090913A02A0913B02B0913C0226B5A89BBC
:100CD00005C02F3F19F00196A11DB11D3FBFBA2FCE
:100CE000A92F982F8827BC01CD01620F711D811D8E
:100CF000911D42E0660F771F881F991F4A95D1F713
:100D000008958F929F92AF92BF92CF92DF92EF920F
:100D1000FF926B017C010E945C064B015C01C114D7
:100D2000D104E104F104B9F00E945C066819790964
:100D30008A099B09683E73408105910580F321E093
:100D4000C21AD108E108F10888EE880E83E0981EE7
:100D5000A11CB11CE4CFFF90EF90DF90CF90BF902B
:100D6000AF909F908F9008952FB7F89460913502BF
:100D70007091360280913702909138022FBF08950A
:100D8000EF92FF920F931F93CF93DF938C017B0120
:100D9000D0E0C0E0F701EC0FFD1F6491662361F025
:100DA000D801ED91FC910190F081E02DC8010995E9
:100DB000892B11F02196EECFCE01DF91CF911F91BB
:100DC0000F91FF90EF900895AF92BF92CF92DF9274
:100DD000EF92FF920F931F93CF93DF936C017B01F0
:100DE0008B01040F151FEB015E01AE18BF08C01781
:100DF000D10759F06991D601ED91FC910190F081F4
:100E0000E02DC6010995892B79F7C501DF91CF91B6
:100E10001F910F91FF90EF90DF90CF90BF90AF9018
:100E20000895FC01538D448D252F30E0842F90E0F0
:100E3000821B930B541710F0CF96089501970895D5
:100E4000FC01918D828D981761F0A28DAE0FBF2F9E
:100E5000B11D5D968C91928D9F5F9F73928F90E0F4
:100E600008958FEF9FEF0895FC01918D828D981763
:100E700031F0828DE80FF11D858D90E008958FEFA0
:100E80009FEF0895FC01918D228D892F90E0805C69
:100E90009F4F821B91098F739927089584E893E0EF
:100EA0000E94420721E0892B09F420E0822F089557
:100EB00080E090E0892B29F00E944E0781110C946C
:100EC00000000895FC01A48DA80FB92FB11DA35AED
:100ED000BF4F2C91848D90E001968F739927848F5A
:100EE000A689B7892C93A089B1898C91837080647D
:100EF0008C93938D848D981306C00288F389E02D1E
:100F000080818F7D80830895EF92FF920F931F93CE
:100F1000CF93DF93EC0181E0888F9B8D8C8D9813AC
:100F20001AC0E889F989808185FF15C09FB7F894B8
:100F3000EE89FF896083E889F98980818370806404
:100F400080839FBF81E090E0DF91CF911F910F914F
:100F5000FF90EF900895F62E0B8D10E00F5F1F4F5E
:100F60000F731127E02E8C8D8E110CC00FB607FC6D
:100F7000FACFE889F989808185FFF5CFCE010E94FB
:100F80006207F1CFEB8DEC0FFD2FF11DE35AFF4F00
:100F9000F0829FB7F8940B8FEA89FB898081806289
:100FA000CFCFCF93DF93EC01888D8823B9F0AA8946
:100FB000BB89E889F9898C9185FD03C0808186FD14
:100FC0000DC00FB607FCF7CF8C9185FFF2CF808163
:100FD00085FFEDCFCE010E946207E9CFDF91CF916F
:100FE0000895AF92BF92CF92DF92EF92FF921F933C
:100FF000CF93DF937C0110E0C7E0D0E083E2C82EFE
:10100000D12CAA24A394B12C60E0F70180810E9426
:10101000D505C6010197F1F7F70181810E94AC0562
:10102000892B39F0C5010C2E01C0880F0A94EAF70C
:10103000182B61E0F70180810E94D505C601019758
:10104000F1F7219708F7812FDF91CF911F91FF9042
:10105000EF90DF90CF90BF90AF9008950F931F93C4
:10106000CF93DF938C0160E0FC0182810E94D50563
:1010700083E290E00197F1F7C8010E94F107C82FC1
:10108000D0E0DC2FCC27C8010E94F107C82B61E01B
:10109000F80182810E94D50560E070E080EC9FE756
:1010A000C2FD10C083E0D695C7958A95E1F7BE01D1
:1010B00090E080E00E942A3820E030E040E85EE3E3
:1010C0000E941439DF91CF911F910F9108952091C3
:1010D000E801260F3327331F21323105ECF420912C
:1010E0000C02FC0190E080E0243069F082E0089579
:1010F000A091E8012191AC0148535E4FA40FB52F98
:10110000B11D2C930196861798F38091E801680F22
:101110006093E80180E0089581E0089508958FEFDD
:101120009FEF08958FEF9FEF08958091C10190E0A8
:101130009195819591090895CF93DF93CB01EA01B1
:10114000642F0E946708CE01DF91CF910895CF935D
:10115000DF931F92CDB7DEB7698361E0CE010196C0
:101160000E94670881E090E00F90DF91CF91089591
:10117000FC01A5A1B6A18C9192A589238C93A5A170
:10118000B6A18C9191A5892B8C930895DC0193963F
:10119000ED91FC919497908198968C91892380830E
:1011A0000895DC019396ED91FC9194979081979628
:1011B0008C91892B80830895DC019196ED91FC91AF
:1011C0009297908196968C91892380830895DC0173
:1011D0009196ED91FC919297908195968C91892BA7
:1011E00080830895CF92DF92EF92FF921F93CF9367
:1011F000DF93EC016A017B018DA9811123C08F2D42
:101200009927AA27BB278EBD0DB407FEFDCFC701C6
:10121000AA27BB278EBD0DB407FEFDCFBB27AF2D80
:101220009E2D8D2D8EBD0DB407FEFDCFCEBC0DB411
:1012300007FEFDCFDF91CF911F91FF90EF90DF90E0
:10124000CF9008958130B1F410E2CE01F7FE0FC0C7
:101250000E94E708CE010E94D108CE010E94C60874
:10126000CC0CDD1CEE1CFF1C115079F7E3CF0E9463
:10127000DC08F0CFEF8DF8A18F2D9927AA27BB2787
:101280008083CE010E94B808EF8DF8A1C701AA277C
:10129000BB278083CE010E94B808EF8DF8A1BB2741
:1012A000AF2D9E2D8D2D8083CE010E94B808EF8D2D
:1012B000F8A1C082CE01DF91CF911F91FF90EF90F6
:1012C000DF90CF900C94B808FF920F931F93CF93A9
:1012D000DF93EC018B018DA981110EC01EBD0DB4F1
:1012E00007FEFDCF0EBD0DB407FEFDCFDF91CF9100
:1012F0001F910F91FF9008958130B1F490E1F92E84
:10130000CE0117FF0EC00E94E708CE010E94D1084F
:10131000CE010E94C608000F111FFA94F110F0CF01
:10132000E5CF0E94DC08F1CFEF8DF8A11083CE014C
:101330000E94B808EF8DF8A10083CE01DF91CF9114
:101340001F910F91FF900C94B8080F931F93CF93A8
:10135000DF93EC01162F8DA9811109C06EBD0DB46C
:1013600007FEFDCFDF91CF911F910F91089581303E
:1013700099F408E0CE0117FF0CC00E94E708CE01E7
:101380000E94D108110FCE010E94C608015091F7AA
:10139000E9CF0E94DC08F3CFEF8DF8A16083CE0186
:1013A000DF91CF911F910F910C94B808CF93DF93E9
:1013B000EC01ED8DFE8D80819CA989238083CE0177
:1013C0000E94A509ED8DFE8D80819BA9892B8083CC
:1013D000DF91CF9108958F929F92AF92BF92CF925B
:1013E000DF92EF92FF920F931F93CF93DF93EC0165
:1013F00089AD9AAD680F791F8BAD9CAD480F591F11
:1014000021503109260F371F4901B12CA12CCB01E6
:10141000B0E0A0E0DC0199278827882A992AAA2A27
:10142000BB2A680181E0C81AD108C40ED51EF12C70
:10143000E12C70E060E0BA0155274427C42AD52A80
:10144000E62AF72A6AE2CE010E94D609B501A40174
:10145000CE010E94F2086BE2CE010E94D609B701CC
:10146000A601CE010E94F2086CE2CE01DF91CF917D
:101470001F910F91FF90EF90DF90CF90BF90AF90B2
:101480009F908F900C94D6091F93CF93DF93EC011C
:10149000162FE881F9810284F385E02D0995112347
:1014A00071F06DADCE010E94D609E881F981068800
:1014B000F789E02DCE01DF91CF911F9109946EAD98
:1014C000F1CFAF92BF92CF92DF92EF92FF920F9344
:1014D0001F93CF93DF93EC0177FD38C08885998502
:1014E000681779079CF557FD31C08A859B85481799
:1014F000590764F569017A015B01E881F981028489
:10150000F385E02DCE010995E881F98102A4F3A5C8
:10151000E02D01E010E021E030E0A701B501CE01AF
:101520000995B601CE010E946409E881F981068817
:10153000F789E02DCE01DF91CF911F910F91FF90A0
:10154000EF90DF90CF90BF90AF900994DF91CF9153
:101550001F910F91FF90EF90DF90CF90BF90AF90D1
:1015600008958F929F92AF92BF92CF92DF92EF92A7
:10157000FF920F931F93CF93DF93EC014901570123
:10158000E881F98102A4F3A5E02D09959401D80121
:101590000E94153A6B017C01C114D104E104F104ED
:1015A00009F47DC08DA9811115C081E0C81AD10848
:1015B000E108F1088FEFC816D806E806F80609F426
:1015C0006EC0BEBC0DB407FEFDCFAEBC0DB407FEB1
:1015D000FDCFEBCF813099F581E0C81AD108E10841
:1015E000F1088FEFC816D806E806F80609F457C0C8
:1015F0000B2D18E0CE0107FF1CC00E94E708CE01AA
:101600000E94D108CE010E94C608000F115091F728
:101610000A2D18E0CE0107FF0FC00E94E708CE0197
:101620000E94D108CE010E94C608000F115091F708
:10163000D3CF0E94DC08E3CF0E94DC08F0CFBA10C1
:1016400016C0CC0CDD1CEE1CFF1CEF8DF8A1B08287
:1016500081E0C81AD108E108F1088FEFC816D80652
:10166000E806F806E1F0CE010E94B808F1CF81E06B
:10167000C81AD108E108F1088FEFC816D806E806A5
:10168000F80669F0EF8DF8A1B082CE010E94B8088B
:10169000EF8DF8A1A082CE010E94B808E8CFDF91BB
:1016A000CF911F910F91FF90EF90DF90CF90BF905F
:1016B000AF909F908F9008958F929F92AF92BF921C
:1016C000CF92DF92EF92FF920F931F93CF93DF930E
:1016D0004C01EB016A01590137FF07C0C9010196AE
:1016E000C80FD91FB194A194B108F401A085B185A8
:1016F000CA17DB070CF058C017FF07C0C8010196D6
:10170000C80ED91E119501951109F40182859385A2
:10171000C816D9060CF048C0FE01EA0DFB1DAF014A
:101720004150510957FD40C0B601600F711F9B0128
:101730002150310937FD38C0D7FF03C05F01D0E029
:10174000C0E0D7FE03C08B01D12CC12C4A175B0728
:101750001CF05D01AC1ABD0A281739071CF08C017A
:101760000C191D09D401ED91FC910284F385E02D43
:10177000C40109959501A601BE01C4010E94B10AE8
:10178000D401ED91FC910688F789E02DC401DF9129
:10179000CF911F910F91FF90EF90DF90CF90BF906E
:1017A000AF909F908F900994DF91CF911F910F91EF
:1017B000FF90EF90DF90CF90BF90AF909F908F9071
:1017C0000895EF92FF920F931F932115310529F091
:1017D0000115110511F00E945C0B1F910F91FF90F4
:1017E000EF9008958F929F92AF92BF92CF92DF9227
:1017F000EF92FF920F931F93CF93DF935C014B0106
:101800006A01E90177FD52C0DC0118968D919C9127
:10181000681779070CF04AC0209709F447C037FFD2
:1018200007C0C9010196C80ED91ED195C195D1092D
:10183000F50182859385C816D906C4F5A6014C0F1B
:101840005D1F9A012150310937FD30C0D7FE03C01A
:10185000EA01D12CC12C281739071CF0EC01CC1956
:10186000DD09D501ED91FC910284F385E02DC501E0
:10187000099578018E0121E030E0A601B401C5018F
:101880000E94B10AD501ED91FC910688F789E02DFF
:10189000C501DF91CF911F910F91FF90EF90DF90E5
:1018A000CF90BF90AF909F908F900994DF91CF9190
:1018B0001F910F91FF90EF90DF90CF90BF90AF906E
:1018C0009F908F9008958F929F92AF92BF92CF92E8
:1018D000DF92EF92FF920F931F93CF93DF935C0100
:1018E0006B014A01E90157FD52C0DC011A968D9146
:1018F0009C91481759070CF04AC0209709F447C03B
:1019000037FF07C0C9010196C80ED91ED195C195F0
:10191000D109F50180859185C816D906C4F5A601BF
:101920004C0F5D1F9A012150310937FD30C0D7FEA1
:1019300003C0EA01D12CC12C281739071CF0EC0197
:10194000CC19DD09D501ED91FC910284F385E02DE0
:10195000C5010995780101E010E09E01A401B601DE
:10196000C5010E94B10AD501ED91FC910688F78965
:10197000E02DC501DF91CF911F910F91FF90EF9066
:10198000DF90CF90BF90AF909F908F900994DF91A0
:10199000CF911F910F91FF90EF90DF90CF90BF906C
:1019A000AF909F908F900895EF92FF920F931F93A7
:1019B000CF93DF9377FD32C0DC011896ED91FC9157
:1019C0006E177F075CF52115310541F137FF07C020
:1019D000F90131964E0F5F1F319521953109DC01D8
:1019E0001A96ED91FC914E175F07C4F4EA01C20FFD
:1019F000D31FDE011197B7FD11C057FF03C09E0131
:101A000050E040E0AE17BF071CF09F01241B350BD0
:101A10007801890121E030E00E94B10ADF91CF9185
:101A20001F910F91FF90EF9008952F923F924F9248
:101A30005F926F927F928F929F92AF92BF92CF925E
:101A4000DF92EF92FF920F931F93CF93DF93CDB767
:101A5000DEB72B970FB6F894DEBF0FBECDBF3C01AB
:101A60007E836D835B874A872F832801170181E07E
:101A700090E06C01C41AD50ACA019195819591092B
:101A80009C01220F331F3A832983C80101969C834E
:101A90008B83F12CE12C88248394912C9B012F5F64
:101AA0003F4F398728878A859B85E816F9060CF011
:101AB0006DC0AA84BB84D7FC0CC05C0191E0A91A5C
:101AC000B10829813A812E5F3F4F3A832983C20EA4
:101AD000D31E3FEFE31AF30A82E0880E911CC80C74
:101AE000D91CAE14BF0444F42A853B852A153B0556
:101AF000D1F4BB86AA86D7CF9501220F331F4D8123
:101B00005E814A195B098F81813019F58B819C8137
:101B1000280F391F8101B701660D771D8BE494E012
:101B20000E94D40CE1CF9F81913029F5940122507D
:101B30003109240D351D6A857B85660D771D810170
:101B4000488559854E195F098BE494E00E94D40CB6
:101B5000D0CF8B819C81280F391F8101B3016E1971
:101B60007F098BE494E00E94D40C2A853B852A15DA
:101B70003B0509F4BECF940122503109240D351DD7
:101B8000B3018A859B85681B790BD9CF2B960FB63D
:101B9000F894DEBF0FBECDBFDF91CF911F910F91A3
:101BA000FF90EF90DF90CF90BF90AF909F908F907D
:101BB0007F906F905F904F903F902F900895EF929D
:101BC000FF920F931F93CF93DF9357FD31C0DC013A
:101BD0001A96ED91FC914E175F0754F521153105CA
:101BE00039F137FF07C0F90131966E0F7F1F31952C
:101BF00021953109DC011896ED91FC916E177F0754
:101C0000BCF4EB01C20FD31FDE011197B7FD10C06A
:101C100077FF03C09E0170E060E0AE17BF071CF0C5
:101C20009F01261B370B780101E010E00E94B10AEA
:101C3000DF91CF911F910F91FF90EF9008958F92B8
:101C40009F92AF92BF92CF92DF92EF92FF920F934B
:101C50001F93CF93DF9347012115310509F44BC042
:101C60000115110509F447C037FF07C0F901319686
:101C70006E0F7F1F319521953109DC011896AD90CB
:101C8000BC906A157B05BCF517FF07C0F8013196BB
:101C90004E0F5F1F119501951109DC011A96ED9108
:101CA000FC914E175F073CF56B01C20ED31EE60197
:101CB0002197D7FD20C07A01E00EF11ED7011197C0
:101CC000B7FD19C077FF03C0960170E060E057FFD1
:101CD00003C0870150E040E0CA15DB051CF0950108
:101CE000261B370BAE17BF071CF08F01041B150B0B
:101CF00074010E94B10ADF91CF911F910F91FF9063
:101D0000EF90DF90CF90BF90AF909F908F9008950D
:101D1000EF92FF920F931F93CF93DF93EC0177FD28
:101D200022C08885998568177907ECF457FD1BC098
:101D30008A859B8548175907B4F47901E881F981B0
:101D400002A4F3A5E02D01E010E021E030E0CE0197
:101D50000995B701CE01DF91CF911F910F91FF90AF
:101D6000EF900C946409DF91CF911F910F91FF9038
:101D7000EF9008952F923F924F925F926F927F92D1
:101D80008F929F92AF92BF92CF92DF92EF92FF928B
:101D90000F931F93CF93DF9300D000D0CDB7DEB762
:101DA0006C015B015C834B8381E090E04C01841A01
:101DB000950A2A01519441945108440C551CF12C68
:101DC000E12C66246394712C422F44704983522F76
:101DD00052705A83822F8870282E2170322E4B81A8
:101DE0005C81E416F5060CF083C097FC09C04150F5
:101DF00051095C834B8352E0450E511C840C951CA9
:101E00008FEFE81AF80A92E0690E711C860C971C95
:101E100049814423C1F098014B815C814A0D5B1DCF
:101E2000B6016E0D7F1D8BE494E00E94880E980130
:101E3000A5014E0D5F1D6B817C816C0D7D1D8BE4BA
:101E400094E00E94880E5A815523C9F09801A5019B
:101E50008B819C81481B590BB6016E0D7F1D8BE455
:101E600094E00E94880E9801A5014E195F096B81CC
:101E70007C816C0D7D1D8BE494E00E94880E2220F5
:101E8000C9F09801A5014E0D5F1DB6018B819C81A3
:101E9000681B790B8BE494E00E94880E98014B81BB
:101EA0005C814A0D5B1DB6016E197F098BE494E0DD
:101EB0000E94880E332009F492CF9801A5014E1993
:101EC0005F09B6018B819C81681B790B8BE494E0E0
:101ED0000E94880E9801A5018B819C81481B590B9B
:101EE000B6016E197F098BE494E00E94880E77CFCB
:101EF0000F900F900F900F90DF91CF911F910F9146
:101F0000FF90EF90DF90CF90BF90AF909F908F9019
:101F10007F906F905F904F903F902F90089508951D
:101F200081E00C940306FC0187A987FD06C0A38D00
:101F3000B48D9C9181A9892B8C9308958EBD00004E
:101F40000DB407FEFDCF8EB508958CBD9DBD0895DF
:101F5000FC0125A9211104C081A192A10C94A50F17
:101F600008950F931F93CF93DF93EC018B010E9491
:101F7000A80F8FA987FD06C0EB8DFC8D80819AA9E3
:101F800089238083ED8DFE8D80819CA989238083A8
:101F900066E3CE010E94A509ED8DFE8D80819BA98F
:101FA000892B80838DA9F801823091F06081CE0168
:101FB0000E94A5098FA987FD06C0EB8DFC8D80814D
:101FC00099A9892B8083DF91CF911F910F9108955B
:101FD00088A9882359F360817181CE010E94640928
:101FE000E9CFCF93DF931F92CDB7DEB7FC01198203
:101FF0006370668BDC01AD5BBF4F2C9130E01196B6
:102000008C9190E0623031F06330C9F0613081F042
:1020100040EC498332AF21AF94AF83AFBE016F5F15
:102020007F4FCF010E94B10F0F90DF91CF910895A4
:1020300040EA498334AF23AF92AF81AFEFCF40E6A0
:10204000F8CF0F931F93CF93DF931F92CDB7DEB7D7
:10205000FC0119826370668BDC01A85BBF4F2D9178
:102060003C91119712968D919C916230D1F1633021
:1020700009F440C08F010C5B1F4F6130F9F040EC58
:102080004983AF014D5B5F4FDA014C9150E052AF95
:1020900041AFD8014C9150E054AF43AF3187208716
:1020A00093878287BE016F5F7F4FCF010E94B10F80
:1020B0000F90DF91CF911F910F91089540EA4983CE
:1020C000D8014C9150E052AF41AFDF01AA5BBF4F46
:1020D0004C9150E054AF43AF33872287918780877C
:1020E000E1CFDF01AA5BBF4F4C9150E052AF41AF4F
:1020F0001196D0CF40E64983DF01A95BBF4F4C91D9
:1021000050E052AF41AF1497E3CFCF93DF93EC0190
:102110000E94A80F8FA987FD06C0EB8DFC8D8081E2
:102120009AA989238083DF91CF9108952F923F92BE
:102130004F925F926F927F928F929F92AF92BF92D7
:10214000CF92DF92EF92FF920F931F93CF93DF9383
:1021500000D000D0CDB7DEB71C015B012A013C8363
:102160002B8368018BE494E00E9485103801660C93
:10217000771CC801820D931D9A83898392012619C9
:1021800037090B811C81A501BC018BE494E00E94FE
:102190001F0E8B819C818619970901979C838B83E5
:1021A000AC0CBD1C420C531CC2018C199D090B8147
:1021B0001C8121E0A601B50101970E94150D0B813C
:1021C0001C8122E0A601B50189819A810E94150D2A
:1021D0008BE494E00F900F900F900F90DF91CF91D0
:1021E0001F910F91FF90EF90DF90CF90BF90AF9035
:1021F0009F908F907F906F905F904F903F902F9027
:102200000C94930F2F923F924F925F926F927F9216
:102210008F929F92AF92BF92CF92DF92EF92FF92F6
:102220000F931F93CF93DF9300D000D000D0CDB792
:10223000DEB71C012B015C834B8359011E830D8388
:102240008BE494E00E9485108D819E81880F991FF8
:102250009A8389838B809C80881A990A6D807E80FE
:10226000620C731C87019401A201B3018BE494E01A
:102270000E94DF0D6501C40CD51CA6014150510917
:102280009401B3018BE494E00E94DF0D89819A816F
:10229000A81AB90A8D819E81480E591E9501A20186
:1022A000B1018BE494E00E94D40C8B819C81280EB8
:1022B000391EB101615071099501A2018BE494E0CE
:1022C0000E94D40C21E04D815E81B201C3010E94C5
:1022D000BA0E8D819E81281A390A91E0291A310897
:1022E00022E04D815E81B201C1010E94BA0E8D8152
:1022F0009E81C81AD90A91E0C91AD10824E04D81FB
:102300005E81B601C1010E94BA0E28E04D815E8156
:10231000B601C3010E94BA0E8BE494E026960FB674
:10232000F894DEBF0FBECDBFDF91CF911F910F910B
:10233000FF90EF90DF90CF90BF90AF909F908F90E5
:102340007F906F905F904F903F902F900C94930FE1
:102350000895FC016370668B8481958126813781A5
:10236000613039F0633029F0918780873387228785
:102370000895318720879387828708952F923F920F
:102380004F925F926F927F928F929F92AF92BF9285
:10239000CF92DF92EF92FF920F931F93CF93DF9331
:1023A000CDB7DEB76A970FB6F894DEBF0FBECDBFCC
:1023B0009A8F898F7A8369834A01D22E18870F8377
:1023C0003701BC2CDC0159962D913C915A9721156F
:1023D000310509F015C118968D919C9119976817D0
:1023E00079070CF0D7C11A968D919C91481759071F
:1023F0000CF0D0C14C2C512CB6E0CB9E600D711D61
:1024000011247C876B87161617060CF0C3C1EA2DC2
:10241000F0E0FA87E98793E0EE0FFF1F9A95E1F766
:10242000F88BEF87CF01840F951F181619060CF053
:10243000B1C1A98DBA8D58968C91811104C0BFEAA3
:10244000BD1508F4D394A98DBA8DED91FC91119727
:102450000284F385E02DCD010995B5E0DB9EC00136
:102460001124E981FA81FC83EB83312C212C9C011E
:102470002D513F4F388F2F8B4A2D50E05E8B4D8B67
:10248000EF89F88DE20DF31D44919E828D82D12C4F
:10249000C12C69817A81620D731D7A8B698B842FBF
:1024A00090E09C8B8B8BE98DFA8DA081B18140FFF0
:1024B00082C0F1E0BF126FC0AF126DC01C96ED91EB
:1024C000FC912F813885A4014C0D5D1D69897A89A5
:1024D000898D9A8D0995EB89FC89F595E7954E2FA5
:1024E0005FEFC51AD50A6D817E818D899E89680F3F
:1024F000791F7E836D8398E0C916D10481F6AFEF12
:102500002A1A3A0AEB81FC81E40DF51DFC83EB836A
:10251000F5E02F16310409F0B3CF2F813885261549
:102520003705B9F0A98DBA8DED91FC91B1E0BB12E0
:1025300057C0AB1255C069817A816B5F7F4F0088AD
:10254000F189E02D830128E030E0A401898D9A8D86
:102550000995A98DBA8DED91FC9111970688F7899F
:10256000E02DCD016A960FB6F894DEBF0FBECDBF49
:10257000DF91CF911F910F91FF90EF90DF90CF905F
:10258000BF90AF909F908F907F906F905F904F9093
:102590003F902F9009941E96ED91FC91EF80F88466
:1025A00009851A8592014D815E816B817C81898DBF
:1025B0009A8D099590CF2F8138852615370509F416
:1025C0008ACF31E0B31207C0A31205C01C96ED916B
:1025D000FC91930178CF1E96ED91FC917301E0CFB1
:1025E0006B857C85641975090684F785E02D730178
:1025F0000F8518899201A401898D9A8D0995A9CF1B
:10260000F90134969491329745915491D91AB7E0D3
:10261000DB9E400D511D1124F901259134913C8B15
:102620002B8BFA0125903490FA01329674903196F2
:102630003491398B329664903196449041E04C1538
:1026400018F04A1508F07FC0662D062C000C770B99
:102650007C836B83842D042C000C990B9E838D83CB
:10266000A98DBA8DED91FC9111970284F385E02D2F
:10267000CD010995512CD12CC12CEA2DF0E0FA871F
:10268000E9872B2D30E03C872B87A401440D511D99
:1026900047FC5A95588F4F8B69817A81660D711D61
:1026A00067FC7A957E876D877989C71608F051CFC8
:1026B0002C2D30E04D815E81420F531FA985BA85D4
:1026C0004A9FC0014B9F900D5A9F900D1124FC0111
:1026D000E80DF91DF88BEF87852D612C4F89588DFA
:1026E000420F531F5E8B4D8B671408F050C044247B
:1026F0004394480E877041F4C1010196EB89FC892F
:10270000E20DF31DD4901C01D7FE19C0A98DBA8D1E
:10271000ED91FC91662D70E0B1E0BB1219C0AB12D7
:1027200017C02D853E85620F731F0484F585E02D4B
:102730002F8138854D895E89898D9A8D0995DD0CAB
:102740006394842DD1CF1E821D821C821B8288CF70
:102750004B815C81640F751FAB85BC856A9FC0018E
:102760006B9F900D7A9F900D112469817A81680F7B
:10277000791F0684F785E02DEF80F88409851A8596
:102780009D014F855889898D9A8D0995D8CF570C11
:10279000C3948ACF6A960FB6F894DEBF0FBECDBF42
:1027A000DF91CF911F910F91FF90EF90DF90CF902D
:1027B000BF90AF909F908F907F906F905F904F9061
:1027C0003F902F9008958F929F92AF92CF92EF9269
:1027D000FF920F931F93CF93DF93EC01262F898DE8
:1027E0009A8D009709F051C06A30D1F41D861C867D
:1027F0008D8948E0849F900111248E859F85820FEA
:10280000931F9F878E8781E090E0DF91CF911F918A
:102810000F91FF90EF90CF90AF909F908F90089581
:102820006D3089F3CC88AD888F898823C1F08C8581
:102830009D8536E0C39E800D911D112448855985E4
:102840004817590764F44E855F851D861C8638E05D
:10285000A39EC0011124840F951F9F878E87EA884D
:10286000FB88088919894E855F856C857D85CE0139
:102870000E94BE112C898C859D8546E0249F800D89
:10288000911D11249D878C87BECF6A3069F41D8607
:102890001C86FC013896E4912D898E859F85E29FE8
:1028A000800D911D1124ADCF6D3009F4ACCFFC012A
:1028B00034963491631708F4A6CF3296E491E61764
:1028C00008F4A1CFFC01329685909490462F431BCB
:1028D000342F47E0349F800C911C1124F401329670
:1028E00034913196E4913323A9F1EE2399F1CC8808
:1028F000F4013596E491AD884F89442301F10E2E01
:10290000000CFF0BE30FF11DCE9EA001CF9E500DDA
:1029100011246C857D85460F571F6885798564175E
:1029200075076CF44E855F851D861C86FC01389604
:10293000E491AE9E400D511D11245F874E87EA88B9
:10294000FB88088919894E855F856C857D85CE0158
:102950000E94BE11F4013496E4912C898C859D85EA
:10296000E29F800D911D11248DCF6F927F928F92E7
:102970009F92AF92BF92CF92DF92EF92FF920F930E
:102980001F93CF93DF93EC016B015A01390148018A
:10299000E881F9810284F385E02D0995E881F981C8
:1029A0000288F389E02D87019301A501B601CE01CC
:1029B0000995A501480D591D41505109E881F9813A
:1029C0000288F389E02D9301B601CE010995E881D3
:1029D000F9810088F189E02D9401A501B601CE01AD
:1029E0000995C60CD71CB60161507109E881F981BF
:1029F0000088F189E02D9401A501CE010995E881B7
:102A0000F9810688F789E02DCE01DF91CF911F91E2
:102A10000F91FF90EF90DF90CF90BF90AF909F907D
:102A20008F907F906F9009946F927F928F929F9278
:102A3000AF92BF92CF92DF92EF92FF920F931F93CC
:102A4000CF93DF935C01EB016A01490138018701F3
:102A5000DC01ED91FC916217730719F56416750698
:102A60002CF0962D872D3A01C92ED82E96012619C5
:102A700037092F5F3F4F048CF58DE02DA301BE0178
:102A8000C5010995DF91CF911F910F91FF90EF90B4
:102A9000DF90CF90BF90AF909F908F907F906F907E
:102AA00008954615570591F42617370724F0892D08
:102AB0004B01C22FD82F9E01281939092F5F3F4F94
:102AC000068CF78DE02DA601B401DACF0284F385E0
:102AD000E02D0995D501ED91FC910488F589E02D53
:102AE00083019401A601BE01C5010995D501ED91AF
:102AF000FC910688F789E02DC501DF91CF911F91E8
:102B00000F91FF90EF90DF90CF90BF90AF909F908C
:102B10008F907F906F900994EF92FF920F931F9385
:102B2000DC011A960D911C911B9718962D913C91E2
:102B30001997ED91FC9100A0F1A1E02D7B0150E0EF
:102B400040E070E060E009951F910F91FF90EF90D9
:102B500008954F925F926F927F928F929F92AF9261
:102B6000BF92CF92DF92EF92FF920F931F93CF937A
:102B7000DF936C012B015A0139014801DC01ED9111
:102B8000FC910284F385E02D0995E201640C751C2B
:102B9000D601ED91FC91C615D7055CF40088F1894A
:102BA000E02D87019401A501BE01C601099521967A
:102BB000EFCF0688F789E02DC601DF91CF911F91F5
:102BC0000F91FF90EF90DF90CF90BF90AF909F90CC
:102BD0008F907F906F905F904F9009948F929F920B
:102BE000AF92BF92CF92DF92EF92FF920F931F931B
:102BF000CF93DF93EC015B014A016901E881F98120
:102C00000284F385E02D099595012C0D3D1D215081
:102C10003109E881F9810488F589E02D7801840182
:102C2000A401B501CE010995E881F9810688F789EB
:102C3000E02DCE01DF91CF911F910F91FF90EF908A
:102C4000DF90CF90BF90AF909F908F9009948F921C
:102C50009F92AF92BF92CF92DF92EF92FF920F932B
:102C60001F93CF93DF93EC015B014A016901780167
:102C7000E881F9810284F385E02D0995C80CD91CFF
:102C8000860101501109E881F9810488F589E02D58
:102C90009501A401B501CE010995E881F981068865
:102CA000F789E02DCE01DF91CF911F910F91FF9019
:102CB000EF90DF90CF90BF90AF909F908F9009944E
:102CC000EF92FF920F931F93DC01ED91FC9100A016
:102CD000F1A1E02D09951F910F91FF90EF900895BC
:102CE0000F931F93DC01ED91FC91068CF78DE02D85
:102CF00009951F910F9108950F931F93DC01ED919A
:102D0000FC91048CF58DE02D09951F910F9108958C
:102D1000DC01ED91FC910084F185E02D09942F9266
:102D20003F924F925F926F927F928F929F92AF925B
:102D3000BF92CF92DF92EF92FF920F931F93CF93A8
:102D4000DF9300D000D000D0CDB7DEB73C016A01E0
:102D50003E832D83FC82EB825801A41AB50AB7FE8C
:102D600003C0B194A194B1088D809E80861A970A01
:102D700097FE03C09194819491088A149B045CF09F
:102D8000902F812F0D811E819D838E839C2D8D2DF3
:102D90006B01692F782F0C151D055CF09D818E81CC
:102DA0007E836D83692F782F902F812F8601C92E06
:102DB000D82E1601201A310A2B012D813E81421A8C
:102DC000530A57FE03C0519441945108710137FED4
:102DD00003C03FEFE31AF30AF594E7948D819E81D7
:102DE000861797075CF5A1E0B0E0BA83A983C01607
:102DF000D1064CF1D301ED91FC910484F585E02DD1
:102E00002B813C81A8016D817E818A149B041CF07A
:102E10004D815E81B801C3010995E418F508F7FEFC
:102E20000AC02D813E8189819A81280F391F3E83F6
:102E30002D83E20CF31C0F5F1F4FD9CF2FEF3FEF15
:102E40003A832983D4CF26960FB6F894DEBF0FBEFF
:102E5000CDBFDF91CF911F910F91FF90EF90DF9049
:102E6000CF90BF90AF909F908F907F906F905F902A
:102E70004F903F902F900895089590E080E008953E
:102E8000CF93CFB7F8948091C001811127C0E8E4B7
:102E9000FAE08491EAE2FAE09491E82FF0E0EE0F94
:102EA000FF1FEA5CF64FA591B491EC91E92321F460
:102EB00061E08AE00E94D50561E08AE00E94200678
:102EC0008CB580618CBD8CB580648CBD61E08DE07B
:102ED0000E94200661E08BE00E9420068091C001E4
:102EE0008F5F8093C001CFBFCF910895CF92DF92C3
:102EF000EF92FF92CF93DF93FC012485222361F1AF
:102F0000EC0160817181828193819B01AC010E94FF
:102F1000C739811121C0C884D984EA84FB8420E0A8
:102F200030E044E252E4C701B6010E94DC3887FF7A
:102F300013C0C1E020E030E04CE152E4C701B6012B
:102F40000E94DC3887FDC0E08C2FDF91CF91FF908D
:102F5000EF90DF90CF900895C2E0F6CF8F929F92CE
:102F6000AF92BF92CF92DF92EF92FF920E94B4068F
:102F70006B017C0180914D02882309F4A8C08091E7
:102F80008002882309F4A3C020914E0230914F02A1
:102F900040915002509151026091490270914A0251
:102FA00080914B0290914C020E9417379F7720E04E
:102FB00030E040E85FE30E94843718160CF487C0C5
:102FC00020918102309182024091830250918402CB
:102FD00060917C0270917D0280917E0290917F02CF
:102FE0000E9417379F7720E030E040E85FE30E94BF
:102FF000843718160CF46BC081E492E00E947617B7
:10300000823009F464C084E792E00E94761782302F
:1030100009F45DC080913D0290913E02A0913F0273
:10302000B091400246015701881A990AAA0ABB0AC0
:1030300028EE821623E09206A104B104B8F1C5017E
:10304000B40128EE33E040E050E00E94ED39809179
:10305000380390913903A0913A03B0913B03820F5A
:10306000931FA41FB51F80342EE7920725E0A20707
:10307000B10540F58093380390933903A0933A0348
:10308000B0933B03C501B40128EE33E040E050E0CB
:103090000E94ED39C61AD70AE80AF90AC0923D0221
:1030A000D0923E02E0923F02F092400281E0809393
:1030B0003C03FF90EF90DF90CF90BF90AF909F9038
:1030C0008F9008958FE39EE7A5E0B0E0D3CF1092F4
:1030D00038031092390310923A0310923B03C092C6
:1030E0003D02D0923E02E0923F02F09240021092E6
:1030F0003C03DFCFCF92DF92EF92FF92FC0122A937
:1031000080E0283090F181A990E0DC011796A7704B
:10311000BB27AA0FBB1FAA0FBB1FAE0FBF1F880F75
:10312000991F880F991FE80FF91F21893289438958
:10313000548951966D917D918D919C9154970E94E7
:1031400017376B017C012DEC3CEC4CE45EE30E94F4
:10315000DC3818167CF02DEC3CEC4CE45EEBC7013F
:10316000B6010E948437880F880BFF90EF90DF90A4
:10317000CF90089581E0F9CF61E08AE00E94D50503
:1031800061E08FE00C94D5054F925F926F927F9231
:103190008F929F92AF92BF92CF92DF92EF92FF9267
:1031A000CF93DF930E94BC1884E294E00E942E0823
:1031B0004B015C010E94BC1881E294E00E942E0841
:1031C0006B017C018092450290924602A0924702D8
:1031D000B0924802A5019401C501B4010E94C7390B
:1031E0008111EDC020E030E040EA51ECC501B401AE
:1031F0000E94DC3818160CF0E2C020E030E040EF0E
:1032000052E4C501B4010E94843787FFD8C081E031
:1032100080934D02D1E08092410290924202A092AE
:103220004302B0924402C0927802D0927902E092B6
:103230007A02F0927B02A7019601C701B6010E94B3
:10324000C739811114C020E030E040EA51ECC701D9
:10325000B6010E94DC38181654F420E030E040EF4C
:1032600052E4C701B6010E94843787FDB2C01092B4
:103270008002C0E0C12CD12C60ECE62E6FE7F62E68
:10328000C0927402D0927502E0927602F0927702B8
:10329000DD2309F441C023E333E343E35FE36091BB
:1032A000490270914A0280914B0290914C020E9417
:1032B00014392B013C012AE939E949E95EE3C501EA
:1032C000B4010E9414399B01AC01C301B2010E94F8
:1032D00018376093490270934A0280934B0290938F
:1032E0004C022091720230E0F901EE0FFF1FEE0F49
:1032F000FF1FEF5BFD4F618B728B838B948BC9013A
:1033000001968770992780937202809173028830AA
:1033100018F48F5F80937302CC2309F441C023E338
:1033200033E343E35FE360917C0270917D0280911F
:103330007E0290917F020E9414394B015C012AE9C0
:1033400039E949E95EE3C701B6010E9414399B01DE
:10335000AC01C501B4010E94183760937C027093E0
:103360007D0280937E0290937F022091A50230E03F
:10337000F901EE0FFF1FEE0FFF1FEE5AFD4F63AB7B
:1033800074AB85AB96ABC901019687709927809382
:10339000A5028091A602883018F48F5F8093A60260
:1033A000DF91CF91FF90EF90DF90CF90BF90AF90E3
:1033B0009F908F907F906F905F904F9008951092A4
:1033C0004D02D0E0812C912C70ECA72E7FE7B72E18
:1033D00022CF81E080938002C1E052CF61E08FE094
:1033E0000E94D50561E086E00E94D50561E088E095
:1033F0000C94D505FC01680F791F8FEF9FEF219189
:10340000922728E0AC01880F991F57FF04C031E2D2
:10341000832730E193272150A9F7E617F70779F7BB
:1034200008958F929F92AF92BF92CF92DF92EF92C8
:10343000FF920F931F93CF93DF93EA016B017C01FF
:1034400080E4C8168EE7D80685E0E806F10438F077
:103450003FE3C32E3EE7D32E35E0E32EF12CC70128
:10346000B60120E13EE040E050E00E94ED39022F3D
:103470002CE3822E912CA12CB12CA50194010E9449
:10348000ED39122FC701B601A50194010E94ED3953
:10349000462F2AE0802F622F0E94E139805D8883C9
:1034A000905D99833AE33A83812F0E94E139805DF0
:1034B0008B83905D9C833D83842F0E94E139805DE6
:1034C0008E83905D9F831886DF91CF911F910F911E
:1034D000FF90EF90DF90CF90BF90AF909F908F9034
:1034E000089561E08AE00E94D50561E086E00E94CF
:1034F000D50561E088E00C94D505AF92BF92CF92DC
:10350000DF92EF92FF920F931F93CF93DF93B82E2A
:10351000EB01A090CB020FEF1FEF2FE1C22ED12CB9
:10352000A8120EC08091CC0200EE1FEFCC24CA94EA
:1035300097E0D92E811104C08FE1C82E88EFD82ED4
:103540000E94711A780108E010E022E930E046E9B3
:1035500050E062E270E0CE010E940211760124E1A7
:1035600030E044E950E063E270E0CE0101960E9451
:10357000961082E080935F04809360048FEF9FEF4A
:1035800090935C0480935B04D0925E04C0925D04CF
:103590002896D0935804C093570486E290E0909305
:1035A0005A048093590463ED79E0AB1008C0809110
:1035B000CC0266ED79E0882311F069ED79E08BE4C7
:1035C00094E00E94C0066AEC79E0B11002C06EEC93
:1035D00079E08BE494E0DF91CF911F910F91FF9000
:1035E000EF90DF90CF90BF90AF900C94C0060F93F8
:1035F0001F93CF93082F10E0C1E09091CB02981356
:10360000C0E098E1909FF001919FF00D1124E25CE1
:10361000FC4F938DC91305C02091CC02948D2917BE
:1036200071F00E947D1A88E1809FF001819FF00D6A
:103630001124E25CFC4FC38F8091CC02848FCF9128
:103640001F910F910895AF92BF92CF92DF92EF92A8
:10365000FF920F931F93CF93DF93B82EEB01A090AF
:10366000CB020FEF1FEF4FE1C42ED12CA8120EC0DA
:103670008091CC0200EE1FEFCC24CA9437E0D32E09
:10368000811104C08FE1C82E88EFD82E0E94711AD4
:10369000780108E010E022E930E046E950E062E21B
:1036A00070E0CE010E940211760124E130E044E98D
:1036B00050E063E270E0CE0101960E949610F12C7A
:1036C000E12C00E810E022E930E042E350E0BE01E6
:1036D0006E5F7F4F8BE494E00E945C0B109262045B
:1036E00082E080935F04809360048FEF9FEF90935C
:1036F0005E0480935D0490935C0480935B048E0170
:10370000085F1F4F109358040093570486E290E01F
:1037100090935A048093590461EC79E0AB1008C08F
:103720008091CC0264EC79E0882311F067EC79E0B9
:103730008BE494E00E94C0066EE979E0B11002C00B
:1037400062EA79E08BE494E00E94C00681E0809315
:103750005F04809360048FEF9FEF90935E048093EB
:103760005D0490935C0480935B0410935804009371
:10377000570498E7A92EB12CB0925A04A09259048C
:103780006DEB79E08BE494E00E94C006109358043E
:103790000093570424E8C22ED12CD0925A04C09230
:1037A000590469EB79E08BE494E00E94C006109321
:1037B00058040093570480E990E090935A04809352
:1037C000590464EB79E08BE494E00E94C006109306
:1037D0005804009357048CE990E090935A04809326
:1037E000590460EB79E08BE494E00E94C006CA5A69
:1037F000DF4FD0935804C0935704B0925A04A0925C
:1038000059046BEA79E08BE494E00E94C006D093FF
:103810005804C0935704D0925A04C092590467EADE
:1038200079E08BE494E0DF91CF911F910F91FF90AD
:10383000EF90DF90CF90BF90AF900C94C0068F9226
:103840009F92AF92BF92CF92DF92EF92FF920F932F
:103850001F93CF93DF930E94711A70E060E08BE4B6
:1038600094E00E948C15CBE4D4E01F8A8FE1E82E0F
:10387000F12C06E010E028E130E048E351E064E09C
:1038800070E084E090E00E94961082E08C8B8D8B3B
:10389000CC24CA94DC2CDB8ACA8AD98AC88A8CE0F8
:1038A00090E09D878C8789E090E09F878E8762E912
:1038B00079E0CE010E94C006BB24B394BC8ABD8AC5
:1038C000DB8ACA8AD98AC88A83EC90E09D878C8774
:1038D00008E010E01F870E876CE879E0CE010E94B7
:1038E000C00688248A94912C9D868C861F870E871B
:1038F00068E879E0CE010E94C00666E070E080E0F2
:103900000E94231B64EA70E081E00E94231BEE24E6
:10391000EA94FE2C06E010E020E330E048E351E0BA
:103920006AEB70E084E090E00E940211BC8ABD8ADC
:10393000DB8ACA8AD98AC88A4AE0E42EF12CFD863D
:10394000EC8602EC10E01F870E8764E879E0CE0178
:103950000E94C00650E7A52EB12CBD86AC861F87FD
:103960000E8760E879E0CE010E94C0066EEBC62E9D
:10397000D12CDD86CC861F870E876BE779E0CE01E0
:103980000E94C0069D868C861F870E8766E779E0B9
:10399000CE010E94C006FD86EC8608ED10E01F8770
:1039A0000E8761E779E0CE010E94C006BD86AC8635
:1039B0001F870E876DE679E0CE010E94C006DD8686
:1039C000CC861F870E8768E679E0CE01DF91CF9124
:1039D0001F910F91FF90EF90DF90CF90BF90AF902D
:1039E0009F908F900C94C006AF92BF92CF92DF92BF
:1039F000EF92FF920F931F93CF93DF93EC016B0134
:103A00005A0189010E94711AF12CE12C9501A6013D
:103A1000BE018BE494E00E94E10BDF91CF911F91F6
:103A20000F91FF90EF90DF90CF90BF90AF900895EF
:103A30002AE030E047E350E060E170E082EC90E0A3
:103A40000E94F41C0E94711A81E080935F048093AD
:103A5000600482EC90E0909358048093570480E1D6
:103A600090E090935A04809359048091CE02811182
:103A700010C080E098EF90935E0480935D04909373
:103A80005C0480935B046AE07AE08BE494E00C943D
:103A9000C0068091CF02882369F080EE97E0909372
:103AA0005E0480935D0490935C0480935B046AE100
:103AB0007AE0EBCF80E098EF90935E0480935D0412
:103AC00090935C0480935B0462E17AE0DECF4F92D6
:103AD0005F926F927F92AF92BF92CF92DF92EF92FE
:103AE000FF921F93CF93DF93EC016B017A01FB01EF
:103AF0001082FA01108288810E94AC055C0111E0FD
:103B0000892B09F410E00E94B4062A81211729F0BC
:103B10001A836B837C838D839E834B805C806D8056
:103B20007E809B01AC0124193509460957092901FA
:103B30003A013FE14316510461047104F8F0298110
:103B40002117E1F01983AB28B1F46F837887898757
:103B50009A871B8681E0F6018083DF91CF911F91C8
:103B6000FF90EF90DF90CF90BF90AF907F906F90DD
:103B70005F904F90089581E0F701EECF80E0EDCFA8
:103B8000CF92DF92EF92FF92FC01C12C92E1D92EED
:103B90009AE7E92EF12C90E04C155D056E057F0546
:103BA00040F4F694E794D794C7949F5F9630A1F7BA
:103BB00097E02C702065392F3695232B2083909524
:103BC00091709183FF90EF90DF90CF900895CF9305
:103BD000DF9300D0CDB7DEB740912B0450912C0479
:103BE00060912D0470912E0420E0CE0101960E9478
:103BF000C01D89819A810E94A50F80E00E94030662
:103C00000F900F90DF91CF910895CF93DF93D82F2E
:103C1000C62F0E94E71D8D2F80620E949E0F809309
:103C20002F048C2F0E949E0FDF91CF910C94900F48
:103C300060913B0461FD0AC0626060933B0480E0D8
:103C40000E94051E8BE19EE40197F1F70895CF9342
:103C5000C82F0E94E71D8C2F0E949E0F80932F0477
:103C60008FEF0E949E0FC82F0E94900F8C2FCF9134
:103C70000895CF93DF93EC0186E00E94271E877D95
:103C80002297E1F045E550E060E070E040934204A7
:103C9000509343046093440470934504C0E0C82BE0
:103CA0006C2F86E00E94051E86E00E94271E91E090
:103CB000C81390E0892FDF91CF9108954BE950E030
:103CC00060E070E0409342045093430460934404E6
:103CD00070934504C0E2E3CFFF920F931F93CF93FD
:103CE000DF93C82FF62E072F142F0E94E71D8C2F6D
:103CF00080620E949E0F80932F04CF2DD02F1150F1
:103D000020F089910E949E0FFACFDF91CF911F91F1
:103D10000F91FF900C94900F0E94181E60913B042D
:103D2000616060933B0480E00E94051E60E787E0CD
:103D30000E94051E81E00E94170680913D048823A1
:103D400039F040913F0461E374E08AE00C946C1E0A
:103D500082E00E94271EE2E6F9E0E49121E030E0F3
:103D600001C0220FEA95EAF72095622F682382E0CE
:103D70000E94051E10923D040895CF93C82F0E9403
:103D8000E71D8C2F0E949E0F80932F04CF910C94DF
:103D9000900F81EE0E94BD1E80912F0408950E9415
:103DA000E71D80E50E949E0F80932F0483E70E9409
:103DB0009E0F0C94900F8F929F92AF92BF92DF92C2
:103DC000EF92FF920F931F93CF93DF9300D0CDB765
:103DD000DEB78C014A015B0181149104A104B10496
:103DE00039F4812C28E4922E28EEA22EBB24B39421
:103DF000F801FF9680829182A282B38281E2F8016B
:103E000085AF80E286AFEB5BFF4FF080F80187A9BA
:103E100087FD08C061E00E94200661E0F80187A9E3
:103E20000E94D50561E0F80180AD0E94200661E0A6
:103E3000F80180AD0E94D505F80185A981114CC01B
:103E40002F2DB501A401CE0101960E94C01D8981CC
:103E50009A81F80192A381A38F2D90E0B0E0A0E0B9
:103E600083A394A3A5A3B6A30E944017F80186A933
:103E700087FD24C061E00E94200661E0F80186A968
:103E80000E94D50564E670E080E090E00E94810623
:103E900060E0F80186A90E94D50564E670E080E044
:103EA00090E00E94810661E0F80186A90E94D50594
:103EB00068EC70E080E090E00E9481060F900F9027
:103EC000DF91CF911F910F91FF90EF90DF90BF9006
:103ED000AF909F908F9008959EE3E92E9AE0F92E7F
:103EE000D12C8130D9F461E082A50E94200660E0E7
:103EF000F80182A50E94D50561E0F80184A50E9421
:103F0000200660E0F80184A50E94D505F80183A58C
:103F100087FDACCF60E00E942006A8CFF701849116
:103F2000E82FF0E0EE0FFF1FEC5CF54F85919491C8
:103F3000F801278D30A12817390741F461E08D2D54
:103F40000E94200660E08D2D0E94D505D394FFEFDE
:103F5000EF1AFF0A84E1D812E1CF61E0F80186A5EB
:103F60000E94200661E0F80186A50E94D505F801AF
:103F700087A587FD7BCF61E00E94200661E0F80104
:103F800087A50E94D50572CF0E94333AFB010190AC
:103F90000020E9F73197AF01461B570BDC01ED918B
:103FA000FC910280F381E02D0994CF93DF93BC0153
:103FB00084E893E00E94C006EC0168E571E084E8C3
:103FC00093E00E94C61F8C0F9D1FDF91CF91089533
:103FD0008F929F92AF92BF92EF92FF920F931F9397
:103FE000CF93DF93CDB7DEB7A1970FB6F894DEBFBE
:103FF0000FBECDBF7C01FA01CB0119A2223008F41B
:104000002AE08E010F5D1F4F822E912CB12CA12C26
:10401000BF01A50194010E94ED39F901CA016A307E
:104020000CF5605DD8016E938D01232B242B252B7D
:1040300079F790E080E0109721F0BD01C7010E9460
:10404000C61FA1960FB6F894DEBF0FBECDBFDF919D
:10405000CF911F910F91FF90EF90BF90AF909F90E5
:104060008F900895695CDECF2F923F924F925F92BE
:104070006F927F928F929F92AF92BF92CF92DF9278
:10408000EF92FF921F93CF93DF93EC016A017B01C4
:10409000722EAB019601CB01B6010E94C7396BE5C8
:1040A00071E0811126C046015701E894B7F82FEF5F
:1040B0003FEF4FE75FE7C501B4010E94C7398111A7
:1040C0000CC02FEF3FEF4FE75FE7C501B4010E943F
:1040D00084376FE571E0181664F02FEF3FEF4FE77C
:1040E0005FE4C701B6010E94DC381816B4F463E639
:1040F00071E0CE01DF91CF911F91FF90EF90DF90A3
:10410000CF90BF90AF909F908F907F906F905F9077
:104110004F903F902F900C94C61F2FEF3FEF4FE72B
:104120005FECC701B6010E94843787FDE0CF20E035
:1041300030E0A901C701B6010E948437312C212C3F
:1041400087FF0DC0E881F9810190F081E02D6DE2DB
:10415000CE0109951C01F7FAF094F7F8F09410E0FD
:1041600060E070E080E09FE3711641F020E030E015
:1041700040E251E40E9489371F5FF6CFA701960104
:104180000E9418372B013C010E94FB374B015C0158
:104190002AE0BC01A401CE010E94E81F7C01E20CD0
:1041A000F31C1123E1F1C501B4010E942A389B01DF
:1041B000AC01C301B2010E9417374B015C01E881D9
:1041C000F9810190F081E02D6EE2CE010995E80EB3
:1041D000F91E115020F120E030E040E251E4C50129
:1041E000B4010E9414392B013C010E94FB374B01A2
:1041F000B12CA12C2AE0B501A401CE010E94E81F38
:10420000E80EF91EC501B4010E942A389B01AC01D9
:10421000C301B2010E9417374B015C01DACFC7011D
:10422000DF91CF911F91FF90EF90DF90CF90BF90E3
:10423000AF909F908F907F906F905F904F903F9046
:104240002F900895CF92DF92EF92FF926B017C0145
:10425000AC019B010E94C739882351F06EE579E0DB
:1042600084E893E0FF90EF90DF90CF900C94C0062D
:1042700022E0B701A60184E893E0FF90EF90DF9081
:10428000CF900C9434200F931F93CF93DF93EB01C7
:104290008A01BC0184E893E00E94C0068C858823D3
:1042A000A1F06BE670E084E893E00E94C0066881AC
:1042B00079818A819B810E94222188E690E0DF91AA
:1042C000CF911F910F910C94D51F65ED70E084E89C
:1042D00093E00E94C0066C817D818E819F810E9447
:1042E00022216AEC70E084E893E00E94C006C801D5
:1042F0000E94D51F6C817D818E819F819B01AC01C5
:104300000E94C739882319F089E990E0D8CF80E767
:1043100090E0D5CF6115710511F00C94C61F90E0A7
:1043200080E008958F929F92AF92BF92CF92DF92DA
:10433000EF92FF920F931F93CF93DF93CDB7DEB72A
:1043400029970FB6F894DEBF0FBECDBF0E94711A39
:1043500081E080935F048093600420910603309194
:10436000070380917303909174032817390791F123
:104370002AE030E048E550E06CEC70E08AE090E044
:104380000E94F41C0E94711A80EE9FEF90935E04CD
:1043900080935D0490935C0480935B048AE090E0DA
:1043A00090935804809357048CEC90E090935A04B7
:1043B0008093590460910603709107038BE494E0A5
:1043C0000E948A21809106039091070390937403C1
:1043D000809373039091CB0280917503981791F1AC
:1043E0002AE030E04CE350E06CEC70E080E790E0D5
:1043F0000E94F41C0E94711A8FEF9FEF90935E044D
:1044000080935D0490935C0480935B0480E790E06C
:1044100090935804809357048CEC90E090935A0446
:10442000809359048091CB0264EF79E0811102C03E
:1044300068EF79E08BE494E00E94C0068091CB02A3
:10444000809375039091CC02809176039817B1F117
:104450002AE030E040E350E06CEC70E08EEB90E05E
:104460000E94F41C0E94711A8EEB90E09093580405
:10447000809357048CEC90E090935A0480935904F5
:104480002091CC0280E098EF222311F08FEF97E08B
:1044900090935E0480935D0490935C0480935B042E
:1044A0006BEE79E0222311F060EF79E08BE494E089
:1044B0000E94C0068091CC028093760360913803FD
:1044C0007091390380913A0390913B0300917703F7
:1044D000109178032091790330917A036017710766
:1044E00082079307F1F1AE014F5F5F4F0E94111AEF
:1044F0002AE030E047E350E06CEC70E08FEF90E0B2
:104500000E94F41C0E94711A8FEF9FEF90935E043B
:1045100080935D0490935C0480935B048FEF90E044
:1045200090935804809357048CEC90E090935A0435
:1045300080935904BE016F5F7F4F8BE494E00E942B
:104540008A218091380390913903A0913A03B09168
:104550003B038093770390937803A0937903B09300
:104560007A0380907C0390907D03A0907E03B090AE
:104570007F03C0904902D0904A02E0904B02F09035
:104580004C0201E0A7019601C701B6010E94C7399C
:10459000811101C000E011E0A5019401C501B40141
:1045A0000E94C739811101C010E0011310C0A5019C
:1045B0009401C701B6010E9417379F772DEC3CECA0
:1045C0004CE45DE30E94DC3818160CF044C02AE08D
:1045D00030E040E550E062EE70E08AE090E00E945A
:1045E000F41C0E94711A8FEF9FEF90935E048093EA
:1045F0005D0490935C0480935B048AE090E0909368
:1046000058048093570482EE90E090935A0480936C
:10461000590480914D02882309F4E6C04091490273
:1046200050914A0260914B0270914C0221E08BE460
:1046300094E00E9434208091490290914A02A09116
:104640004B02B0914C0280937C0390937D03A09326
:104650007E03B0937F038090800390908103A090AD
:104660008203B0908303C0907C02D0907D02E090E2
:104670007E02F0907F0201E0A7019601C701B6011A
:104680000E94C739811101C000E011E0A501940129
:10469000C501B4010E94C739811101C010E00113A6
:1046A00010C0A5019401C701B6010E9417379F777A
:1046B0002DEC3CEC4CE45DE30E94DC3818160CF069
:1046C00044C02AE030E046E450E062EE70E080E76B
:1046D00090E00E94F41C0E94711A80E790E0909391
:1046E00058048093570482EE90E090935A0480938C
:1046F00059048FEF9FEF90935E0480935D04909335
:104700005C0480935B0480918002882309F473C069
:1047100040917C0250917D0260917E0270917F02F7
:1047200021E08BE494E00E94342080917C029091FF
:104730007D02A0917E02B0917F02809380039093CE
:104740008103A0938203B093830390913C038091F3
:104750007B039817B1F12AE030E040E350E062EECD
:1047600070E08EEB90E00E94F41C0E94711A8EEBB8
:1047700090E0909358048093570482EE90E09093D9
:104780005A048093590420913C0380E098EF22233F
:1047900011F080EE97E090935E0480935D04909317
:1047A0005C0480935B046CED79E0222311F06FEDE3
:1047B00079E08BE494E00E94C00680913C038093F2
:1047C0007B0329960FB6F894DEBF0FBECDBFDF91F5
:1047D000CF911F910F91FF90EF90DF90CF90BF90FE
:1047E000AF909F908F90089567EE79E08BE494E00E
:1047F0000E94C00620CF63EE79E08BE494E00E9433
:10480000C00693CF0F931F93CF93DF93CDB7DEB73F
:1048100029970FB6F894DEBF0FBECDBF8C010E9462
:10482000B406F8010081118122813381601B710B74
:10483000820B930B28EE33E040E050E00E94ED390C
:10484000CA01B901AE014F5F5F4F0E94111A2AE001
:1048500030E04AE350E060E170E08EEF90E00E94CB
:10486000F41C0E94711AEBE4F4E081E0848B858BE8
:104870008FEF9FEF938B828B918B808B8EEF90E0ED
:104880009587848780E190E097878687BE016F5F78
:104890007F4FCF010E948A2129960FB6F894DEBF80
:1048A0000FBECDBFDF91CF911F910F9108951F9340
:1048B000CF93DF9385ED8093BC008091C4019091EC
:1048C000C501A091C601B091C7010796A11DB11DF8
:1048D00023E0B695A795979587952A95D1F72091CE
:1048E000BC0024FD03C010920C0252C04091C401D0
:1048F0005091C5016091C6017091C701452B462BAF
:10490000472B69F30097A105B10541F02AE22A95EA
:10491000F1F700C00197A109B109E1CF8091C3016E
:10492000C1E0C093C201882399F1D091B8001091E1
:10493000BA008091BC008A7B8093BC0060E082E179
:104940000E94D50560E083E10E94D50510920C021B
:10495000C0930E0210920D0261E082E10E94D50523
:1049600061E083E10E94D5058091B9008E7F80933C
:10497000B9008091B9008D7F8093B90088E480935D
:10498000B80085E48093BC001093BA00D093B800BF
:10499000DF91CF911F9108958F929F92AF92BF9216
:1049A000CF92DF92EF92FF920F931F93CF93DF93FB
:1049B000FC01D2A9D23008F460C08C010F5E1F4FF9
:1049C0005801C0E0C12CD12C7601F5012191319123
:1049D000419151915F01C701B6010E9418376B01E7
:1049E0007C01CF5FDC13F1CF6C2F70E090E080E0B2
:1049F0000E942A389B01AC01C701B6010E94893789
:104A00004B015C01D0E0C12CD12C7601F801619101
:104A10007191819191918F01A50194010E941737A5
:104A20009B01AC010E9414399B01AC01C701B60186
:104A30000E9418376B017C01DF5FCD13E7CF8C2F0D
:104A40008150990BBC01072E000C880B990B0E941A
:104A50002C389B01AC01C701B6010E948937DF9158
:104A6000CF911F910F91FF90EF90DF90CF90BF906B
:104A7000AF909F908F900C94873960E070E080EC4D
:104A80009FE7DF91CF911F910F91FF90EF90DF9003
:104A9000CF90BF90AF909F908F9008958F929F92EC
:104AA000AF92BF92DF92EF92FF920F931F93CF933B
:104AB000DF938091CE028111B1C08FEF80933E03CE
:104AC0000E94B40600910C0310910D0320910E0377
:104AD00030910F03601B710B820B930B28EE33E0B8
:104AE00040E050E00E94ED3920933F0330934003B3
:104AF0004093410350934203D090CB02E090CC020C
:104B000001E412E0CEE3D3E0F12CF801808491843B
:104B1000A284B3848D829E82AF82B886C8010E942F
:104B200076178987F80165857685878590896A87F4
:104B30007B878C879D87A50194010E9417376E871C
:104B40007F87888B998BF80180819181A281B381C5
:104B50008A8B9B8BAC8BBD8BC8010E94CC246E8B47
:104B60007F8B888F998FC8010E947A188A8F81E085
:104B7000DF1080E08B8FEC8E0D5C1F4F6896F1E0AC
:104B8000FF1255C080910603909107039093740320
:104B900080937303D0927503E0927603809138037B
:104BA00090913903A0913A03B0913B03809377032E
:104BB00090937803A0937903B0937A0380913C0398
:104BC00080937B038091490290914A02A0914B020D
:104BD000B0914C0280937C0390937D03A0937E035D
:104BE000B0937F0380917C0290917D02A0917E0220
:104BF000B0917F028093800390938103A0938203FE
:104C0000B0938303DF91CF911F910F91FF90EF90AD
:104C1000DF90BF90AF909F908F9008958091CF02CA
:104C2000882311F081E04ACF10923E0349CFFF2440
:104C3000F3946BCF2F923F924F925F926F927F923D
:104C40008F929F92AF92BF92CF92DF92EF92FF929C
:104C50000F931F93CF93DF93CDB7DEB72B970FB68C
:104C6000F894DEBF0FBECDBF9E838D837B876A879E
:104C70001A01DB0118968D909D90AD90BC901B970A
:104C8000A50194011D966D917D918D919C915097F8
:104C90000E9417376B017C018A859B850E94CC247A
:104CA00069837A838B839C838A859B850E94761790
:104CB0008F838A859B850E947A188887F101F48109
:104CC000F987D1014D905D906D907C9001E0A50138
:104CD0009401C501B4010E94C739811101C000E0EF
:104CE00011E0A3019201C301B2010E94C7398111F1
:104CF00001C010E0011314C0A3019201C501B40169
:104D00000E9417379F772DEC3CEC4CE45DE30E944A
:104D1000DC3818162CF0BF81E985BE1709F450C0A5
:104D2000AD80BE80FAE0AF0EB11C28E230E046E470
:104D300050E06EE370E0C5010E94F41C0E94711AFD
:104D4000AA85BB851C968C911C97882309F4A7C261
:104D500084E080935F0480936004CD010E94761705
:104D6000823009F496C2813009F496C280EE97E051
:104D700090935E0480935D0490935C0480935B0445
:104D8000B0925804A092570480E490E090935A04A3
:104D900080935904EA85FB8540855185628573853A
:104DA00021E08BE494E00E943420EA85FB85808535
:104DB0009185A285B385F10180839183A283B3831A
:104DC00081E080935F0480936004D10115964D903B
:104DD0005D906D907C901897EA85FB85858496841C
:104DE000A784B08801E0A5019401C501B4010E9427
:104DF000C739811101C000E011E0A3019201C30194
:104E0000B2010E94C739811101C010E001130FC027
:104E1000A3019201C501B4010E9417379F772DECC1
:104E20003CEC4CE45DE30E94DC381816E4F529E024
:104E300030E040E350E068E770E0AD80BE80FCE128
:104E4000AF0EB11CC5010E94F41C0E94711A8FEFB5
:104E50009FEF90935E0480935D0490935C04809335
:104E60005B04B0925804A092570488E790E09093B6
:104E70005A0480935904AA85BB851D964D915D9176
:104E80006D917C91509721E08BE494E00E94342056
:104E9000EA85FB8585859685A785B089F10185839F
:104EA0009683A783B087D10119968D909D90AD9080
:104EB000BC901C9701E0A7019601C701B6010E94B2
:104EC000C739811101C000E011E0A5019401C501BD
:104ED000B4010E94C739811101C010E0011310C054
:104EE000A5019401C701B6010E9417379F772DECE9
:104EF0003CEC4CE45DE30E94DC3818160CF03FC03B
:104F000029E030E040E350E064E870E0AD80BE802E
:104F1000BCE1AB0EB11CC5010E94F41C0E94711AC9
:104F2000B0925804A092570484E890E090935A04F9
:104F3000809359048FEF9FEF90935E0480935D04FC
:104F400090935C0480935B0420E030E0A901C701EA
:104F5000B6010E94DC3887FD06C064E07AE08BE48D
:104F600094E00E94C00621E0B701A6018BE494E022
:104F70000E943420F101C186D286E386F486D101F5
:104F80001D968D909D90AD90BC905097EA85FB85C5
:104F9000C080D180E280F38001E0A7019601C701C3
:104FA000B6010E94C739811101C000E011E0A501DE
:104FB0009401C501B4010E94C739811101C010E0FC
:104FC000011310C0A5019401C701B6010E94173753
:104FD0009F772DEC3CEC4CE45DE30E94DC38181626
:104FE0000CF03FC029E030E04AE250E060E970E0B8
:104FF0000D811E810E5D1F4FC8010E94F41C0E948E
:10500000711A109358040093570480E990E090932C
:105010005A0480935904AA85BB851C968C911C97D1
:10502000882309F45CC18FEF9FEF90935E04809317
:105030005D0490935C0480935B044D915D916D9150
:105040007C9121E08BE494E00E943420EA85FB858A
:1050500080819181A281B381F10185879687A7879D
:10506000B08BD1015196CD90DD90ED90FC9054978E
:1050700001E029813A814B815C81CA01B9010E941A
:10508000C739811101C000E011E0A7019601C701F5
:10509000B6010E94C739811101C010E0011312C08E
:1050A000A701960169817A818B819C810E941737C3
:1050B0009F772DEC3CEC4CE45DE30E94DC38181645
:1050C0000CF03FC029E030E044E350E06CE970E0D0
:1050D0000D811E81085E1F4FC8010E94F41C0E94B2
:1050E000711A10935804009357048CE990E0909340
:1050F0005A04809359048FEF9FEF90935E0480933E
:105100005D0490935C0480935B0429813A814B8118
:105110005C81CA01B9010E94C7398111F1C022E046
:1051200049815A816B817C818BE494E00E94342018
:1051300089819A81AB81BC81F101818B928BA38B98
:10514000B48BD10155968C91B885B81709F441C03C
:1051500029E030E04CE150E068E770E00D811E810D
:105160000C581F4FC8010E94F41C0E94711A109322
:1051700058040093570488E790E090935A04809372
:1051800059048A859B850E947A1818160CF4BFC0B2
:105190008111C0C08FEF9FEF90935E0480935D04F8
:1051A00090935C0480935B048A859B850E947A18A7
:1051B00067E671E0181634F06DE671E0882311F0AF
:1051C0006AE671E08BE494E00E948A218885F1010F
:1051D000858B9F81A9859A1709F442C00D811E8194
:1051E00004591F4F29E030E044E250E064E870E0E9
:1051F000C8010E94F41C0E94711A10935804009375
:10520000570484E890E090935A04809359048A8567
:105210009B850E947617823009F47FC0813009F4A3
:105220007FC080EE97E090935E0480935D0490933E
:105230005C0480935B048A859B850E94761762E7F5
:1052400071E0823031F06BEA71E0813011F466E791
:1052500071E08BE494E00E948A218F81F1018483C4
:105260002B960FB6F894DEBF0FBECDBFDF91CF9166
:105270001F910F91FF90EF90DF90CF90BF90AF9074
:105280009F908F907F906F905F904F903F902F9066
:10529000089580E098EF6CCD80EE9FEF69CD83E0BC
:1052A00080935F048093600480E098EF90935E04A5
:1052B00080935D0490935C0480935B04B0925804E7
:1052C000A092570484E490E090935A048093590488
:1052D00066E07AE08BE494E00E94C00666CD80E050
:1052E00098EF90935E0480935D0490935C048093A8
:1052F0005B0460E07AE08BE494E00E94C006A6CEF6
:105300006DEF79E08BE494E00E94C00611CF80EE4F
:1053100097E042CF8FEF97E03FCF80E098EF83CFC9
:1053200080EE9FEF80CFCF92DF92EF92FF926B01E2
:105330007C01AC019B010E94C739811126C020E08D
:1053400030E048EC52E4C701B6010E9414390E94D3
:10535000E138613325E772078105910524F060E3A8
:1053600075E780E090E0DC01CB01803D2AE8920700
:105370002FEFA207B20724F480ED9AE8AFEFBFEF5A
:10538000FF90EF90DF90CF90089580E090E8F8CF05
:105390001F920F920FB60F9211242F933F938F936A
:1053A0009F93AF93BF938091350290913602A09165
:1053B0003702B09138023091340223E0230F2D37A9
:1053C00058F50196A11DB11D20933402809335023A
:1053D00090933602A0933702B0933802809139023D
:1053E00090913A02A0913B02B0913C020196A11D1E
:1053F000B11D8093390290933A02A0933B02B0937F
:105400003C02BF91AF919F918F913F912F910F904F
:105410000FBE0F901F90189526E8230F0296A11D2E
:10542000B11DD2CF1F920F920FB60F9211242F935E
:105430003F934F935F936F937F938F939F93AF931C
:10544000BF93EF93FF9384E893E00E946207FF917C
:10545000EF91BF91AF919F918F917F916F915F91EC
:105460004F913F912F910F900FBE0F901F90189565
:105470001F920F920FB60F9211242F938F939F9329
:10548000EF93FF93E0919403F09195038081E09175
:105490009A03F0919B0382FD1BC0908180919D0334
:1054A0008F5F8F7320919E03821741F0E0919D03DF
:1054B000F0E0EC57FC4F958F80939D03FF91EF91A7
:1054C0009F918F912F910F900FBE0F901F90189565
:1054D0008081F4CF1F920F920FB60F9211242F9359
:1054E0003F934F935F936F937F938F939F93AF936C
:1054F000BF93EF93FF938091B900887F803609F4C2
:105500004AC0F0F5883209F4A5C018F5803109F4D5
:1055100099C0B8F4882309F4F5C0883009F492C022
:10552000FF91EF91BF91AF919F918F917F916F917B
:105530005F914F913F912F910F900FBE0F901F9051
:105540001895883109F486C0803251F780930B0298
:1055500014C0803409F49BC040F48033B9F388331D
:10556000F9F680930B0285ECAEC0803509F483C058
:10557000883509F494C0883499F60E945724D0CF16
:10558000883909F48AC038F5883729F050F488360C
:1055900011F0803729F683E080930C0210920A0202
:1055A00055C0883809F479C0803919F0803809F07D
:1055B000B7CF80910A02803208F06FC0E0910A02F2
:1055C00081E08E0F80930A028091BB00F0E0E651EB
:1055D000FE4F80833BC0803B39F0D0F4803A09F421
:1055E00077C0883A09F09CCF84E080930C02109237
:1055F000E9011092E801F0E0E0E009958091E8010E
:1056000081110FC081E08093E8011092C80109C0A8
:10561000803C09F4A8CF883C09F4A5CF883B09F069
:105620007FCFE091E90181E08E0F8093E901F0E006
:10563000E853FE4F80818093BB009091E9018091F7
:10564000E80129C0809131028093BB0085EC8093F2
:10565000BC0066CF9091300280912F02981758F5C8
:10566000E091300281E08E0F80933002F0E0E15F44
:10567000FD4F8081E9CFE091300281E08E0F809371
:1056800030028091BB00F0E0E15FFD4F808390919C
:10569000300280912F029817C8F285E8D8CFE091A8
:1056A000300281E08E0F809330028091BB00F0E0E9
:1056B000E15FFD4F808380910E0281115ECF81E01A
:1056C00080930D0284EA8093BC0010920C0228CFD4
:1056D00085EC8093BC0010920C0280910A0280320B
:1056E00030F4E0910A02F0E0E651FE4F1082609142
:1056F0000A0270E08AEE91E0F0E0E0E00995109295
:105700000A020ECF10920B0238CF1F93CF93DF9374
:10571000E4E8F3E01382128288EE93E0A0E0B0E0C8
:1057200084839583A683B7838AE191E09183808304
:1057300085EC90E09587848784EC90E09787868756
:1057400080EC90E0918B808B81EC90E0938B828B4E
:1057500082EC90E0958B848B86EC90E0978B868B27
:10576000118E128E138E148EC4E2D4E015E01883CD
:1057700086E08A8387E0898361E086E00E942006D4
:1057800061E088810E94200660E089810E942006F5
:1057900061E08A810E94D505C1E2D4E0188388E0E7
:1057A0008A838EE0898361E088E00E94200661E0C0
:1057B00088810E94200660E089810E94200661E0C5
:1057C0008A810E94D505E7E2F4E089E082838AE0DD
:1057D000838380E896E9A8E9B0E084839583A68373
:1057E000B78380E28187158A168A108F81E0818FC6
:1057F000128E45E050E060E070E0478F50A361A357
:1058000072A32AE434E031832083ABE4B4E013963E
:105810001C921E92129760EF70E015967C936E9327
:10582000149740E451E017965C934E93169719969F
:105830007C936E9318971B965C934E931A9756968B
:105840001C9256971D961C921E921C971F961C9296
:105850001E921E9755968C93559754968C935497F9
:105860004FEF5FEF53965C934E93529751965C9334
:105870004E93509757968C93579758961C925897DB
:105880005A961C921E925997D5961C92D59781E1F3
:10589000D6968C93D6978FE0D7968C93D79780E146
:1058A000D8968C93D897DA961C921E92D997DC964C
:1058B0001C921E92DB97DD961C92DD97DE961C9261
:1058C000DE9710928A0410928B0410928C0410922E
:1058D0008D0490963C932E935F97EEE4FAE0E4916A
:1058E000F0E0EE0FFF1FEC5CF54F859194915E9612
:1058F0009C938E935D97E0E3FAE08491D3968C932A
:10590000D397EDE4FAE0E491F0E0EE0FFF1FEC5CDA
:10591000F54F259134915C963C932E935B97EFE283
:10592000FAE0E491D196EC93D197E095D296EC937E
:10593000D297E82FE095D496EC93D49710928E04EA
:1059400010928F04109290048CE291E08D939C93BE
:105950001092910410929204DF91CF911F910895BB
:10596000CF93DF93CDB7DEB7EE970FB6F894DEBFD7
:105970000FBECDBF789484B5826084BD84B581604C
:1059800084BD85B5826085BD85B5816085BD80910A
:105990006E00816080936E00109281008091810082
:1059A000826080938100809181008160809381007A
:1059B000809180008160809380008091B10084603C
:1059C0008093B1008091B00081608093B00080919D
:1059D0007A00846080937A0080917A00826080935C
:1059E0007A0080917A00816080937A0080917A00B9
:1059F000806880937A001092C100E0919403F09146
:105A0000950382E08083E0919003F09191031082EE
:105A1000E0919203F091930380E1808310929C03C4
:105A2000E0919803F091990386E08083E0919603DA
:105A3000F0919703808180618083E0919603F091DB
:105A40009703808188608083E0919603F0919703AB
:105A5000808180688083E0919603F0919703808134
:105A60008F7D808301E412E040E050E060EC7FE74E
:105A700080E090E0A4E1B2E4F801408351836283C6
:105A80007383448355836683778380879187A28756
:105A9000B387148685879687A787B08B11AA12AA29
:105AA000719628E081939193A193B1932150D1F7FE
:105AB0000D5C1F4FF2E0073A1F07F1F6E7EAF2E04C
:105AC000FF24F3941082F182F282138214821582F1
:105AD0001682178210861186128613863C9622E063
