:020000040000FA
:100000000C9440050C9468050C9468050C946805E4
:100010000C9468050C9468050C9468050C946805AC
:100020000C9468050C9468050C9468050C9468059C
:100030000C9468050C9468050C9468050C9468058C
:100040000C94771D0C9468050C94E71D0C94C11D4D
:100050000C9468050C9468050C9468050C9468056C
:100060000C94191E0C94680500407A10F35A00A0F5
:10007000724E18090010A5D4E80000E87648170071
:1000800000E40B54020000CA9A3B000000E1F505B1
:10009000000080969800000040420F000000A086FB
:1000A00001000000102700000000E803000000002D
:1000B0006400000000000A000000000001000000D1
:1000C00000002C76D888DC674F0823DFC1DFAE59EB
:1000D000E1B1B796E5E3E453C63AE651997696E87E
:1000E000E6C28426EB898C9B62ED407C6FFCEFBC02
:1000F0009C9F40F2BAA56FA5F490055A2AF75C932D
:100100006B6CF9676DC11BFCE0E40D47FEF520E662
:10011000B500D0ED902E0300943577050080841E45
:10012000080000204E0A000000C80C333333330FA0
:10013000986E12831141EF8D2114893BE65516CF3D
:10014000FEE6DB18D1844B381BF77C1D901DA4BB49
:10015000E424203284725E228100C9F124ECA1E5FE
:100160003D2741555448004C415354004C4F4341A6
:100170004C0054494D454F55540044454752414465
:100180004544004C494E4B204F4B00574149544980
:100190004E47004E4F20524144494F002D2D2E2DE9
:1001A00000537263004F75740041637400526571AF
:1001B0000000000000003E5B4F5B3E3E6B4F6B3E1D
:1001C0001C3E7C3E1C183C7E3C181C577D571C1C5A
:1001D0005E7F5E1C00183C1800FFE7C3E7FF0018B5
:1001E000241800FFE7DBE7FF30483A060E2629799E
:1001F0002926407F050507407F05253F5A3CE73CFF
:100200005A7F3E1C1C08081C1C3E7F14227F2214AF
:100210005F5F005F5F06097F017F006689956A6006
:100220006060606094A2FFA29408047E040810201D
:100230007E201008082A1C08081C2A08081E101016
:1002400010100C1E0C1E0C30383E3830060E3E0EC0
:1002500006000000000000005F000000070007002B
:10026000147F147F14242A7F2A1223130864623611
:10027000495620500008070300001C22410000419D
:10028000221C002A1C7F1C2A08083E0808008070D7
:10029000300008080808080000606000201008040A
:1002A000023E5149453E00427F400072494949465D
:1002B0002141494D331814127F1027454545393CDB
:1002C0004A494931412111090736494949364649C8
:1002D00049291E00001400000040340000000814EA
:1002E0002241141414141400412214080201590963
:1002F000063E415D594E7C1211127C7F49494936B8
:100300003E414141227F4141413E7F494949417F30
:10031000090909013E414151737F0808087F0041E6
:100320007F41002040413F017F081422417F40402F
:1003300040407F021C027F7F0408107F3E41414104
:100340003E7F090909063E4151215E7F0919294670
:10035000264949493203017F01033F4040403F1F86
:100360002040201F3F4038403F63140814630304BB
:100370007804036159494D43007F4141410204081B
:100380001020004141417F040201020440404040EE
:1003900040000307080020545478407F2844443824
:1003A0003844444428384444287F3854545418006E
:1003B000087E090218A4A49C787F080404780044ED
:1003C0007D40002040403D007F1028440000417FD8
:1003D00040007C047804787C080404783844444461
:1003E00038FC1824241818242418FC7C0804040859
:1003F000485454542404043F44243C4040207C1C72
:100400002040201C3C4030403C44281028444C9064
:1004100090907C4464544C440008364100000077BE
:100420000000004136080002010204023C26232697
:100430003C1EA1A161123A4040207A3854545559CB
:100440002155557941225454784221555478402001
:10045000545579400C1E527212395555555939541C
:1004600054545939555454580000457C41000245B4
:100470007D420001457C407D1211127DF028252827
:10048000F07C545545002054547C547C0A097F4923
:1004900032494949323A4444443A324A4848303A67
:1004A0004141217A3A42402078009DA0A07D3D4202
:1004B00042423D3D4040403D3C24FF2424487E498B
:1004C00043662B2FFC2F2BFF0929F620C0887E09BD
:1004D0000320545479410000447D413048484A3259
:1004E000384040227A007A0A0A727D0D19317D2641
:1004F00029292F28262929292630484D4020380827
:1005000008080808080808382F10C8ACBA2F1028A7
:1005100034FA00007B000008142A142222142A1442
:10052000085500550055AA55AA55AAFF55FF55FF75
:10053000000000FF00101010FF00141414FF001042
:1005400010FF00FF1010F010F0141414FC0014142D
:10055000F700FF0000FF00FF1414F404FC1414174C
:10056000101F10101F101F1414141F00101010F073
:10057000000000001F101010101F10101010F010BD
:10058000000000FF101010101010101010FF1000CD
:100590000000FF140000FF00FF00001F1017000004
:1005A000FC04F414141710171414F404F40000FFDE
:1005B00000F714141414141414F700F71414141777
:1005C0001410101F101F141414F4141010F010F055
:1005D00000001F101F0000001F14000000FC14008A
:1005E00000F010F01010FF10FF141414FF1410107E
:1005F000101F00000000F010FFFFFFFFFFF0F0F001
:10060000F0F0FFFFFF0000000000FFFF0F0F0F0FD3
:100610000F3844443844FC4A4A4A347E02020606F3
:10062000027E027E0263554941633844443C0440E3
:100630007E201E2006027E020299A5E7A5991C2AAB
:10064000492A1C4C7201724C304A4D4D303048786A
:100650004830BC625A463D3E494949007E0101018D
:100660007E2A2A2A2A2A44445F444440514A44406C
:1006700040444A51400000FF0103E080FF000008B1
:10068000086B6B083612362436060F090F06000079
:1006900018180000001010003040FF0101001F0179
:1006A000011E00191D1712003C3C3C3C00000000DC
:1006B000000901809611800A3A81550A3601082AFC
:1006C00004000000F02B040000014021800A138088
:1006D0000A29800A0A0B0C0D0E0F5345542073682B
:1006E0006F72743D74616E6B20206C6F6E673D6538
:1006F000646974202055502B444F574E20686F6C0E
:10070000643D73637265656E004D4F4445004C490E
:100710004E4B0052454D4F544520424F58005550C6
:100720002B444F574E20686F6C6420746F67676C62
:1007300065732073637265656E0052454D4F544575
:10074000204445425547002573204300455252003E
:100750004552520053797374656D204F4B004368C6
:1007600065636B20746865726D6F636F75706C651F
:1007700020696E70757473004C6F63616C207365D3
:100780006E736F72207761726E696E67004C6F6373
:10079000616C2073656E736F72206F76657220686E
:1007A000617264206D61780054656D70657261746A
:1007B000757265207761726E696E67206163746916
:1007C0007665005245532073656E736F7220696EB3
:1007D00076616C6964004D41494E2073656E736F9C
:1007E0007220696E76616C696400524553206F76A1
:1007F000657274656D70206375746F6666004D4137
:10080000494E206F76657274656D70206375746FE4
:1008100066660052656D6F746520636F6D6D20664E
:1008200061756C74206174206D61696E20626F78EF
:10083000004D61696E2D626F782062726964676530
:10084000206661756C740057616974696E67206613
:100850006F72206D61696E2D626F782073746174A0
:10086000757300436F6D6D2074696D656F75743AB3
:10087000207265747279696E67206D61696E20629D
:100880006F7800526164696F20696E6974206661D7
:10089000696C6564002530326C753A2530326C75B0
:1008A0003A2530326C750041636B3A2575204F4B09
:1008B0003A256C752041743A2573004F4646004F27
:1008C0004E0025732525202573002D2D2E2D250066
:1008D0002D2D2E2D002573202573005649455700D8
:1008E00045444954005458206F6B3A256C75206676
:1008F00061696C3A256C7520205258206F6B3A253F
:100900006C75206261643A256C75004661756C7483
:100910003A30782530345820204C696E6B3A307864
:1009200025303258004F7574204D3A2D2D2E2D2034
:1009300020523A2D2D2E2D2020486561743A3030FA
:10094000004F7574204D3A25732020523A257320AC
:1009500020486561743A253032580052582061674A
:10096000653A256C75206D7320204374726C20618C
:1009700067653A2575005458207365713A257520CE
:10098000205258207365713A257500416374204DDB
:100990003A2D2D2E2D2020523A2D2D2E2D00416343
:1009A00074204D3A25732020523A25730052657108
:1009B000204D3A25732020523A2573004F464600B9
:1009C0004F4E00526177204D3A25732020523A2530
:1009D000730053656C3A25732020456469743A2589
:1009E00073202042746E3A307825303258005245D8
:1009F00053004D41494E004445425547004D414941
:100A00004E004C696E6B3A25732020536372656506
:100A10006E3A257300554E4B4E4F574E0000000066
:100A200000240027002A00000000002300260029DF
:100A3000000000000800020100000304070000009D
:100A40000000000000000102030405010204081078
:100A50002040800102040810200102040810200038
:100A6000000000250028002B0004040404040404F2
:100A70000402020202020203030303030300341F01
:100A800011241FBECFEFD8E0DEBFCDBF26E0AAE81D
:100A9000B1E001C01D92A63DB207E1F711E0A0E070
:100AA000B1E0E2E3F0E702C005900D92AA38B10789
:100AB000D9F715E0C0E4D5E004C02197FE010E94FB
:100AC000E637CF33D107C9F70E945D200C94173861
:100AD0000C940000FC01538D448D252F30E0842FB1
:100AE00090E0821B930B541710F0CF960895019756
:100AF0000895FC01918D828D981761F0A28DAE0F43
:100B0000BF2FB11D5D968C91928D9F5F9F73928FC9
:100B100090E008958FEF9FEF0895FC01918D828DF5
:100B2000981731F0828DE80FF11D858D90E00895C2
:100B30008FEF9FEF0895FC01918D228D892F90E01A
:100B4000805C9F4F821B91098F7399270895FC0148
:100B5000A48DA80FB92FB11DA35ABF4F2C91848D1E
:100B600090E001968F739927848FA689B7892C937B
:100B7000A089B1898C91837080648C93938D848DCE
:100B8000981306C00288F389E02D80818F7D8083D1
:100B90000895EF92FF920F931F93CF93DF93EC0191
:100BA00081E0888F9B8D8C8D98131AC0E889F98914
:100BB000808185FF15C09FB7F894EE89FF89608317
:100BC000E889F98980818370806480839FBF81E098
:100BD00090E0DF91CF911F910F91FF90EF900895DA
:100BE000F62E0B8D10E00F5F1F4F0F731127E02EB5
:100BF0008C8D8E110CC00FB607FCFACFE889F989ED
:100C0000808185FFF5CFCE010E94A705F1CFEB8D46
:100C1000EC0FFD2FF11DE35AFF4FF0829FB7F894C0
:100C20000B8FEA89FB8980818062CFCFCF93DF93DE
:100C3000EC01888D8823B9F0AA89BB89E889F989F4
:100C40008C9185FD03C0808186FD0DC00FB607FC29
:100C5000F7CF8C9185FFF2CF808185FFEDCFCE015C
:100C60000E94A705E9CFDF91CF91089583EC95E02D
:100C70000E949B0521E0892B09F420E0822F089532
:100C800080E090E0892B29F00E94360681110C94B7
:100C900000000895833081F028F4813099F082308B
:100CA000A9F008958730A9F08830C9F08430B1F4F4
:100CB000809180008F7D03C0809180008F7780932A
:100CC0008000089584B58F7784BD089584B58F7DA5
:100CD000FBCF8091B0008F778093B0000895809112
:100CE000B0008F7DF9CFCF93DF93282F30E0F9014B
:100CF000EF5CF54F8491F901E55BF54FD491F90173
:100D0000E759F54FC491CC23A1F081110E944A0606
:100D1000EC2FF0E0EE0FFF1FE95DF54FA591B491C8
:100D2000EC91ED2381E090E009F480E0DF91CF9138
:100D3000089580E090E0FACF1F93CF93DF93282FA0
:100D400030E0F901EF5CF54F8491F901E55BF54F77
:100D5000D491F901E759F54FC491CC23A9F0162F8E
:100D600081110E944A06EC2FF0E0EE0FFF1FE15ABE
:100D7000F54FA591B4918FB7F894EC91111108C07B
:100D8000D095DE23DC938FBFDF91CF911F91089523
:100D9000DE2BF8CF682F8091B6060E949C068091CA
:100DA000D2069091D3068230910538F0880F991FB2
:100DB000880F991F05970197F1F70895682F809183
:100DC000B5069091B60689130C949C060895CF93AE
:100DD000DF9390E0FC01E55BF54F24918759954F37
:100DE000FC0184918823C9F090E0880F991FFC01D1
:100DF000E35EF54FA591B491FC01E15AF54FC59121
:100E0000D49161110DC09FB7F8948C9120958223E5
:100E10008C938881282328839FBFDF91CF910895E9
:100E2000623051F49FB7F8943C91822F80958323D0
:100E30008C93E8812E2BEFCF8FB7F894EC912E2B6B
:100E40002C938FBFEACF3FB7F8948091BF05909164
:100E5000C005A091C105B091C20526B5A89B05C0EB
:100E60002F3F19F00196A11DB11D3FBFBA2FA92F29
:100E7000982F8827BC01CD01620F711D811D911D26
:100E800042E0660F771F881F991F4A95D1F7089592
:100E90008F929F92AF92BF92CF92DF92EF92FF928A
:100EA0006B017C010E9423074B015C01C114D1043A
:100EB000E104F104B9F00E942307681979098A094D
:100EC0009B09683E73408105910580F321E0C21AB9
:100ED000D108E108F10888EE880E83E0981EA11C75
:100EE000B11CE4CFFF90EF90DF90CF90BF90AF9018
:100EF0009F908F9008952FB7F8946091BB057091E3
:100F0000BC058091BD059091BE052FBF0895AF929D
:100F1000BF92CF92DF92EF92FF920F931F93CF93E6
:100F2000DF936C017B018B01040F151FEB015E0148
:100F3000AE18BF08C017D10759F06991D601ED91DD
:100F4000FC910190F081E02DC6010995892B79F77C
:100F5000C501DF91CF911F910F91FF90EF90DF902E
:100F6000CF90BF90AF900895AF92BF92CF92DF9293
:100F7000EF92FF921F93CF93DF937C0110E0C7E0C5
:100F8000D0E083E2C82ED12CAA24A394B12C60E037
:100F9000F70180810E949C06C6010197F1F7F701D5
:100FA00081810E947306892B39F0C5010C2E01C086
:100FB000880F0A94EAF7182B61E0F70180810E94FC
:100FC0009C06C6010197F1F7219708F7812FDF9161
:100FD000CF911F91FF90EF90DF90CF90BF90AF9097
:100FE00008950F931F93CF93DF938C0160E0FC0172
:100FF00082810E949C0683E290E00197F1F7C8018C
:101000000E94B407C82FD0E0DC2FCC27C8010E9473
:10101000B407C82B61E0F80182810E949C0660E061
:1010200070E080EC9FE7C2FD10C083E0D695C795C5
:101030008A95E1F7BE0190E080E00E944A3620E008
:1010400030E040E85EE30E943437DF91CF911F919A
:101050000F9108952091B201260F3327331F2132BB
:101060003105ECF42091D601FC0190E080E02430C1
:1010700069F082E00895A091B2012191AC014E5631
:101080005E4FA40FB52FB11D2C930196861798F3D0
:101090008091B201680F6093B20180E0089581E011
:1010A000089508958FEF9FEF08958FEF9FEF0895B4
:1010B00080918B0190E09195819591090895CF934E
:1010C000DF93CB01EA01642F0E942A08CE01DF9151
:1010D000CF910895CF93DF931F92CDB7DEB7698389
:1010E00061E0CE0101960E942A0881E090E00F9015
:1010F000DF91CF910895FC01A5A1B6A18C9192A595
:1011000089238C93A5A1B6A18C9191A5892B8C9351
:101110000895DC019396ED91FC91949790819896B7
:101120008C91892380830895DC019396ED91FC9145
:101130009497908197968C91892B80830895DC01F8
:101140009196ED91FC919297908196968C9189233E
:1011500080830895DC019196ED91FC9192979081A6
:1011600095968C91892B80830895CF92DF92EF9290
:10117000FF921F93CF93DF93EC016A017B018DA94E
:10118000811123C08F2D9927AA27BB278EBD0DB4AF
:1011900007FEFDCFC701AA27BB278EBD0DB407FEF2
:1011A000FDCFBB27AF2D9E2D8D2D8EBD0DB407FE1F
:1011B000FDCFCEBC0DB407FEFDCFDF91CF911F91C7
:1011C000FF90EF90DF90CF9008958130B1F410E25E
:1011D000CE01F7FE0FC00E94AA08CE010E9494081B
:1011E000CE010E948908CC0CDD1CEE1CFF1C1150A6
:1011F00079F7E3CF0E949F08F0CFEF8DF8A18F2DF4
:101200009927AA27BB278083CE010E947B08EF8DF8
:10121000F8A1C701AA27BB278083CE010E947B08C3
:10122000EF8DF8A1BB27AF2D9E2D8D2D8083CE0194
:101230000E947B08EF8DF8A1C082CE01DF91CF9193
:101240001F91FF90EF90DF90CF900C947B08FF925E
:101250000F931F93CF93DF93EC018B018DA9811125
:101260000EC01EBD0DB407FEFDCF0EBD0DB407FEB2
:10127000FDCFDF91CF911F910F91FF9008958130A5
:10128000B1F490E1F92ECE0117FF0EC00E94AA081A
:10129000CE010E949408CE010E948908000F111F00
:1012A000FA94F110F0CFE5CF0E949F08F1CFEF8DB7
:1012B000F8A11083CE010E947B08EF8DF8A1008376
:1012C000CE01DF91CF911F910F91FF900C947B087D
:1012D0000F931F93CF93DF93EC01162F8DA98111EC
:1012E00009C06EBD0DB407FEFDCFDF91CF911F91F8
:1012F0000F910895813099F408E0CE0117FF0CC0DA
:101300000E94AA08CE010E949408110FCE010E94EB
:101310008908015091F7E9CF0E949F08F3CFEF8D24
:10132000F8A16083CE01DF91CF911F910F910C94B2
:101330007B08CF93DF93EC01ED8DFE8D80819CA91E
:1013400089238083CE010E946809ED8DFE8D808106
:101350009BA9892B8083DF91CF9108958F929F92D3
:10136000AF92BF92CF92DF92EF92FF920F931F93B3
:10137000CF93DF93EC0189AD9AAD680F791F8BADE8
:101380009CAD480F591F21503109260F371F4901C5
:10139000B12CA12CCB01B0E0A0E0DC01992788277B
:1013A000882A992AAA2ABB2A680181E0C81AD1088A
:1013B000C40ED51EF12CE12C70E060E0BA01552777
:1013C0004427C42AD52AE62AF72A6AE2CE010E94D7
:1013D0009909B501A401CE010E94B5086BE2CE01C6
:1013E0000E949909B701A601CE010E94B5086CE2DE
:1013F000CE01DF91CF911F910F91FF90EF90DF9081
:10140000CF90BF90AF909F908F900C9499091F93AD
:10141000CF93DF93EC01162FE881F9810284F385E5
:10142000E02D0995112371F06DADCE010E9499094F
:10143000E881F9810688F789E02DCE01DF91CF910F
:101440001F9109946EADF1CFAF92BF92CF92DF9210
:10145000EF92FF920F931F93CF93DF93EC0177FDF1
:1014600038C088859985681779079CF557FD31C084
:101470008A859B854817590764F569017A015B01E4
:10148000E881F9810284F385E02DCE010995E88198
:10149000F98102A4F3A5E02D01E010E021E030E0A5
:1014A000A701B501CE010995B601CE010E94270919
:1014B000E881F9810688F789E02DCE01DF91CF918F
:1014C0001F910F91FF90EF90DF90CF90BF90AF9062
:1014D0000994DF91CF911F910F91FF90EF90DF90D2
:1014E000CF90BF90AF9008958F929F92AF92BF928E
:1014F000CF92DF92EF92FF920F931F93CF93DF93E0
:10150000EC0149015701E881F98102A4F3A5E02D1E
:1015100009959401D8010E94C8376B017C01C11460
:10152000D104E104F10409F47DC08DA9811115C035
:1015300081E0C81AD108E108F1088FEFC816D80673
:10154000E806F80609F46EC0BEBC0DB407FEFDCF78
:10155000AEBC0DB407FEFDCFEBCF813099F581E035
:10156000C81AD108E108F1088FEFC816D806E806B6
:10157000F80609F457C00B2D18E0CE0107FF1CC078
:101580000E94AA08CE010E949408CE010E948908F8
:10159000000F115091F70A2D18E0CE0107FF0FC080
:1015A0000E94AA08CE010E949408CE010E948908D8
:1015B000000F115091F7D3CF0E949F08E3CF0E94F4
:1015C0009F08F0CFBA1016C0CC0CDD1CEE1CFF1C1F
:1015D000EF8DF8A1B08281E0C81AD108E108F108C6
:1015E0008FEFC816D806E806F806E1F0CE010E9493
:1015F0007B08F1CF81E0C81AD108E108F1088FEF2C
:10160000C816D806E806F80669F0EF8DF8A1B08292
:10161000CE010E947B08EF8DF8A1A082CE010E942E
:101620007B08E8CFDF91CF911F910F91FF90EF9052
:10163000DF90CF90BF90AF909F908F9008958F9242
:101640009F92AF92BF92CF92DF92EF92FF920F9351
:101650001F93CF93DF934C01EB016A01590137FFD0
:1016600007C0C9010196C80FD91FB194A194B10850
:10167000F401A085B185CA17DB070CF058C017FF2D
:1016800007C0C8010196C80ED91E11950195110910
:10169000F40182859385C816D9060CF048C0FE0176
:1016A000EA0DFB1DAF014150510957FD40C0B60185
:1016B000600F711F9B012150310937FD38C0D7FFE2
:1016C00003C05F01D0E0C0E0D7FE03C08B01D12C86
:1016D000C12C4A175B071CF05D01AC1ABD0A281724
:1016E00039071CF08C010C191D09D401ED91FC91F6
:1016F0000284F385E02DC40109959501A601BE0180
:10170000C4010E94740AD401ED91FC910688F78906
:10171000E02DC401DF91CF911F910F91FF90EF90C9
:10172000DF90CF90BF90AF909F908F900994DF9102
:10173000CF911F910F91FF90EF90DF90CF90BF90CE
:10174000AF909F908F900895EF92FF920F931F9309
:101750002115310529F00115110511F00E941F0B0B
:101760001F910F91FF90EF9008958F929F92AF92EB
:10177000BF92CF92DF92EF92FF920F931F93CF937E
:10178000DF935C014B016A01E90177FD52C0DC0186
:1017900018968D919C91681779070CF04AC0209794
:1017A00009F447C037FF07C0C9010196C80ED91E0A
:1017B000D195C195D109F50182859385C816D906C1
:1017C000C4F5A6014C0F5D1F9A012150310937FD68
:1017D00030C0D7FE03C0EA01D12CC12C281739072D
:1017E0001CF0EC01CC19DD09D501ED91FC910284CE
:1017F000F385E02DC501099578018E0121E030E0E7
:10180000A601B401C5010E94740AD501ED91FC91B5
:101810000688F789E02DC501DF91CF911F910F91C7
:10182000FF90EF90DF90CF90BF90AF909F908F9000
:101830000994DF91CF911F910F91FF90EF90DF906E
:10184000CF90BF90AF909F908F9008958F929F926E
:10185000AF92BF92CF92DF92EF92FF920F931F93BE
:10186000CF93DF935C016B014A01E90157FD52C040
:10187000DC011A968D919C91481759070CF04AC0CB
:10188000209709F447C037FF07C0C9010196C80E69
:10189000D91ED195C195D109F50180859185C816CC
:1018A000D906C4F5A6014C0F5D1F9A0121503109DC
:1018B00037FD30C0D7FE03C0EA01D12CC12C281758
:1018C00039071CF0EC01CC19DD09D501ED91FC9133
:1018D0000284F385E02DC5010995780101E010E04F
:1018E0009E01A401B601C5010E94740AD501ED91C3
:1018F000FC910688F789E02DC501DF91CF911F91FA
:101900000F91FF90EF90DF90CF90BF90AF909F909E
:101910008F900994DF91CF911F910F91FF90EF90DD
:10192000DF90CF90BF90AF909F908F900895EF92EF
:10193000FF920F931F93CF93DF9377FD32C0DC01AB
:101940001896ED91FC916E177F075CF52115310516
:1019500041F137FF07C0F90131964E0F5F1F3195F6
:1019600021953109DC011A96ED91FC914E175F0724
:10197000C4F4EA01C20FD31FDE011197B7FD11C0F5
:1019800057FF03C09E0150E040E0AE17BF071CF0B8
:101990009F01241B350B7801890121E030E00E9472
:1019A000740ADF91CF911F910F91FF90EF900895EE
:1019B0002F923F924F925F926F927F928F929F925F
:1019C000AF92BF92CF92DF92EF92FF920F931F934D
:1019D000CF93DF93CDB7DEB72B970FB6F894DEBF6A
:1019E0000FBECDBF3C017E836D835B874A872F830B
:1019F0002801170181E090E06C01C41AD50ACA01E0
:101A00009195819591099C01220F331F3A83298377
:101A1000C80101969C838B83F12CE12C882483944C
:101A2000912C9B012F5F3F4F398728878A859B85A3
:101A3000E816F9060CF06DC0AA84BB84D7FC0CC074
:101A40005C0191E0A91AB10829813A812E5F3F4FCC
:101A50003A832983C20ED31E3FEFE31AF30A82E0D2
:101A6000880E911CC80CD91CAE14BF0444F42A85FE
:101A70003B852A153B05D1F4BB86AA86D7CF9501B5
:101A8000220F331F4D815E814A195B098F8181309E
:101A900019F58B819C81280F391F8101B701660DD3
:101AA000771D87E696E00E94970CE1CF9F819130E9
:101AB00029F5940122503109240D351D6A857B8555
:101AC000660D771D8101488559854E195F0987E6A6
:101AD00096E00E94970CD0CF8B819C81280F391FF4
:101AE0008101B3016E197F0987E696E00E94970C89
:101AF0002A853B852A153B0509F4BECF9401225067
:101B00003109240D351DB3018A859B85681B790B2E
:101B1000D9CF2B960FB6F894DEBF0FBECDBFDF91A5
:101B2000CF911F910F91FF90EF90DF90CF90BF90DA
:101B3000AF909F908F907F906F905F904F903F906D
:101B40002F900895EF92FF920F931F93CF93DF93FF
:101B500057FD31C0DC011A96ED91FC914E175F07DD
:101B600054F52115310539F137FF07C0F9013196D8
:101B70006E0F7F1F319521953109DC011896ED918B
:101B8000FC916E177F07BCF4EB01C20FD31FDE017F
:101B90001197B7FD10C077FF03C09E0170E060E0B1
:101BA000AE17BF071CF09F01261B370B780101E021
:101BB00010E00E94740ADF91CF911F910F91FF9066
:101BC000EF9008958F929F92AF92BF92CF92DF9243
:101BD000EF92FF920F931F93CF93DF93470121154D
:101BE000310509F44BC00115110509F447C037FF51
:101BF00007C0F90131966E0F7F1F3195219531098C
:101C0000DC011896AD90BC906A157B05BCF517FFFA
:101C100007C0F80131964E0F5F1F1195019511090C
:101C2000DC011A96ED91FC914E175F073CF56B01B4
:101C3000C20ED31EE6012197D7FD20C07A01E00E27
:101C4000F11ED7011197B7FD19C077FF03C09601A8
:101C500070E060E057FF03C0870150E040E0CA1524
:101C6000DB051CF09501261B370BAE17BF071CF0D8
:101C70008F01041B150B74010E94740ADF91CF9130
:101C80001F910F91FF90EF90DF90CF90BF90AF909A
:101C90009F908F900895EF92FF920F931F93CF9391
:101CA000DF93EC0177FD22C0888599856817790755
:101CB000ECF457FD1BC08A859B8548175907B4F47F
:101CC0007901E881F98102A4F3A5E02D01E010E09B
:101CD00021E030E0CE010995B701CE01DF91CF912F
:101CE0001F910F91FF90EF900C942709DF91CF91F6
:101CF0001F910F91FF90EF9008952F923F924F9276
:101D00005F926F927F928F929F92AF92BF92CF928B
:101D1000DF92EF92FF920F931F93CF93DF9300D048
:101D200000D0CDB7DEB76C015B015C834B8381E0F3
:101D300090E04C01841A950A2A015194419451086B
:101D4000440C551CF12CE12C66246394712C422F19
:101D500044704983522F52705A83822F8870282EE4
:101D60002170322E4B815C81E416F5060CF083C0A5
:101D700097FC09C0415051095C834B8352E0450EEA
:101D8000511C840C951C8FEFE81AF80A92E0690E3A
:101D9000711C860C971C49814423C1F098014B812A
:101DA0005C814A0D5B1DB6016E0D7F1D87E696E0D6
:101DB0000E944B0E9801A5014E0D5F1D6B817C8129
:101DC0006C0D7D1D87E696E00E944B0E5A815523CF
:101DD000C9F09801A5018B819C81481B590BB60164
:101DE0006E0D7F1D87E696E00E944B0E9801A501BF
:101DF0004E195F096B817C816C0D7D1D87E696E035
:101E00000E944B0E2220C9F09801A5014E0D5F1DC6
:101E1000B6018B819C81681B790B87E696E00E9456
:101E20004B0E98014B815C814A0D5B1DB6016E190A
:101E30007F0987E696E00E944B0E332009F492CF8B
:101E40009801A5014E195F09B6018B819C81681B21
:101E5000790B87E696E00E944B0E9801A5018B81D5
:101E60009C81481B590BB6016E197F0987E696E0E5
:101E70000E944B0E77CF0F900F900F900F90DF9135
:101E8000CF911F910F91FF90EF90DF90CF90BF9077
:101E9000AF909F908F907F906F905F904F903F900A
:101EA0002F9008950895FC016370668B848195815D
:101EB00026813781613039F0633029F0918780873E
:101EC00033872287089531872087938782870895F3
:101ED0002F923F924F925F926F927F928F929F923A
:101EE000AF92BF92CF92DF92EF92FF920F931F9328
:101EF000CF93DF93CDB7DEB76A970FB6F894DEBF06
:101F00000FBECDBF9A8F898F7A8369834A01D22E03
:101F100018870F833701BC2CDC0159962D913C9119
:101F20005A972115310509F015C118968D919C918C
:101F30001997681779070CF0D7C11A968D919C9163
:101F4000481759070CF0D0C14C2C512CB6E0CB9E51
:101F5000600D711D11247C876B87161617060CF017
:101F6000C3C1EA2DF0E0FA87E98793E0EE0FFF1F87
:101F70009A95E1F7F88BEF87CF01840F951F18161C
:101F800019060CF0B1C1A98DBA8D58968C918111AA
:101F900004C0BFEABD1508F4D394A98DBA8DED91A4
:101FA000FC9111970284F385E02DCD010995B5E0F0
:101FB000DB9EC0011124E981FA81FC83EB83312C83
:101FC000212C9C012F543E4F388F2F8B4A2D50E0EF
:101FD0005E8B4D8BEF89F88DE20DF31D44919E824F
:101FE0008D82D12CC12C69817A81620D731D7A8B0F
:101FF000698B842F90E09C8B8B8BE98DFA8DA0816F
:10200000B18140FF82C0F1E0BF126FC0AF126DC05E
:102010001C96ED91FC912F813885A4014C0D5D1D1E
:1020200069897A89898D9A8D0995EB89FC89F5955D
:10203000E7954E2F5FEFC51AD50A6D817E818D8998
:102040009E89680F791F7E836D8398E0C916D1043D
:1020500081F6AFEF2A1A3A0AEB81FC81E40DF51DF7
:10206000FC83EB83F5E02F16310409F0B3CF2F8109
:10207000388526153705B9F0A98DBA8DED91FC91FB
:10208000B1E0BB1257C0AB1255C069817A816B5F5A
:102090007F4F0088F189E02D830128E030E0A40122
:1020A000898D9A8D0995A98DBA8DED91FC91119725
:1020B0000688F789E02DCD016A960FB6F894DEBF49
:1020C0000FBECDBFDF91CF911F910F91FF90EF9089
:1020D000DF90CF90BF90AF909F908F907F906F9048
:1020E0005F904F903F902F9009941E96ED91FC9138
:1020F000EF80F88409851A8592014D815E816B819C
:102100007C81898D9A8D099590CF2F8138852615F0
:10211000370509F48ACF31E0B31207C0A31205C016
:102120001C96ED91FC91930178CF1E96ED91FC9158
:102130007301E0CF6B857C85641975090684F7858A
:10214000E02D73010F8518899201A401898D9A8D64
:102150000995A9CFF90134969491329745915491FC
:10216000D91AB7E0DB9E400D511D1124F9012591CC
:1021700034913C8B2B8BFA0125903490FA013296E6
:10218000749031963491398B3296649031964490A4
:1021900041E04C1518F04A1508F07FC0662D062C5A
:1021A000000C770B7C836B83842D042C000C990B23
:1021B0009E838D83A98DBA8DED91FC911197028438
:1021C000F385E02DCD010995512CD12CC12CEA2DA0
:1021D000F0E0FA87E9872B2D30E03C872B87A401BC
:1021E000440D511D47FC5A95588F4F8B69817A8158
:1021F000660D711D67FC7A957E876D877989C71694
:1022000008F051CF2C2D30E04D815E81420F531FDD
:10221000A985BA854A9FC0014B9F900D5A9F900D8A
:102220001124FC01E80DF91DF88BEF87852D612C39
:102230004F89588D420F531F5E8B4D8B671408F0EA
:1022400050C044244394480E877041F4C101019664
:10225000EB89FC89E20DF31DD4901C01D7FE19C057
:10226000A98DBA8DED91FC91662D70E0B1E0BB12A5
:1022700019C0AB1217C02D853E85620F731F0484F1
:10228000F585E02D2F8138854D895E89898D9A8D60
:102290000995DD0C6394842DD1CF1E821D821C8292
:1022A0001B8288CF4B815C81640F751FAB85BC8519
:1022B0006A9FC0016B9F900D7A9F900D11246981D8
:1022C0007A81680F791F0684F785E02DEF80F88406
:1022D00009851A859D014F855889898D9A8D0995A3
:1022E000D8CF570CC3948ACF6A960FB6F894DEBF46
:1022F0000FBECDBFDF91CF911F910F91FF90EF9057
:10230000DF90CF90BF90AF909F908F907F906F9015
:102310005F904F903F902F9008958F929F92AF9231
:10232000CF92EF92FF920F931F93CF93DF93EC0125
:10233000262F898D9A8D009709F051C06A30D1F40B
:102340001D861C868D8948E0849F900111248E850E
:102350009F85820F931F9F878E8781E090E0DF919A
:10236000CF911F910F91FF90EF90CF90AF909F90E2
:102370008F9008956D3089F3CC88AD888F8988233C
:10238000C1F08C859D8536E0C39E800D911D112482
:10239000488559854817590764F44E855F851D8621
:1023A0001C8638E0A39EC0011124840F951F9F87CF
:1023B0008E87EA88FB88088919894E855F856C8538
:1023C0007D85CE010E94680F2C898C859D8546E015
:1023D000249F800D911D11249D878C87BECF6A306C
:1023E00069F41D861C86FC013896E4912D898E8542
:1023F0009F85E29F800D911D1124ADCF6D3009F4B2
:10240000ACCFFC0134963491631708F4A6CF329612
:10241000E491E61708F4A1CFFC01329685909490E0
:10242000462F431B342F47E0349F800C911C11240E
:10243000F401329634913196E4913323A9F1EE23DD
:1024400099F1CC88F4013596E491AD884F89442305
:1024500001F10E2E000CFF0BE30FF11DCE9EA0012B
:10246000CF9E500D11246C857D85460F571F6885C2
:102470007985641775076CF44E855F851D861C860B
:10248000FC013896E491AE9E400D511D11245F87EA
:102490004E87EA88FB88088919894E855F856C8597
:1024A0007D85CE010E94680FF4013496E4912C8959
:1024B0008C859D85E29F800D911D11248DCF0F93FA
:1024C0001F93CF93DF938C01D0E0C0E0F801EC0FB5
:1024D000FD1F6491662341F087E696E00E948D110E
:1024E000892B11F02196F2CFCE01DF91CF911F9170
:1024F0000F9108956F927F928F929F92AF92BF92A9
:10250000CF92DF92EF92FF920F931F93CF93DF93BF
:10251000EC016B015A0139014801E881F98102841B
:10252000F385E02D0995E881F9810288F389E02D92
:1025300087019301A501B601CE010995A501480DBA
:10254000591D41505109E881F9810288F389E02D34
:102550009301B601CE010995E881F9810088F189DE
:10256000E02D9401A501B601CE010995C60CD71C3A
:10257000B60161507109E881F9810088F189E02D87
:102580009401A501CE010995E881F9810688F789B2
:10259000E02DCE01DF91CF911F910F91FF90EF9031
:1025A000DF90CF90BF90AF909F908F907F906F9073
:1025B00009946F927F928F929F92AF92BF92CF9227
:1025C000DF92EF92FF920F931F93CF93DF935C0103
:1025D000EB016A01490138018701DC01ED91FC91B1
:1025E0006217730719F5641675062CF0962D872D62
:1025F0003A01C92ED82E9601261937092F5F3F4F71
:10260000048CF58DE02DA301BE01C5010995DF9174
:10261000CF911F910F91FF90EF90DF90CF90BF90DF
:10262000AF909F908F907F906F90089546155705BB
:1026300091F42617370724F0892D4B01C22FD82F8C
:102640009E01281939092F5F3F4F068CF78DE02D29
:10265000A601B401DACF0284F385E02D0995D501F6
:10266000ED91FC910488F589E02D83019401A60188
:10267000BE01C5010995D501ED91FC910688F78948
:10268000E02DC501DF91CF911F910F91FF90EF9049
:10269000DF90CF90BF90AF909F908F907F906F9082
:1026A0000994EF92FF920F931F93DC011A960D91FC
:1026B0001C911B9718962D913C911997ED91FC91C7
:1026C00000A0F1A1E02D7B0150E040E070E060E06F
:1026D00009951F910F91FF90EF9008954F925F928F
:1026E0006F927F928F929F92AF92BF92CF92DF9222
:1026F000EF92FF920F931F93CF93DF936C012B0107
:102700005A0139014801DC01ED91FC910284F38505
:10271000E02D0995E201640C751CD601ED91FC9148
:10272000C615D7055CF40088F189E02D8701940176
:10273000A501BE01C60109952196EFCF0688F7894C
:10274000E02DC601DF91CF911F910F91FF90EF9087
:10275000DF90CF90BF90AF909F908F907F906F90C1
:102760005F904F9009948F929F92AF92BF92CF92B9
:10277000DF92EF92FF920F931F93CF93DF93EC01C1
:102780005B014A016901E881F9810284F385E02D4A
:10279000099595012C0D3D1D21503109E881F981E4
:1027A0000488F589E02D78018401A401B501CE01EA
:1027B0000995E881F9810688F789E02DCE01DF913E
:1027C000CF911F910F91FF90EF90DF90CF90BF902E
:1027D000AF909F908F9009948F929F92AF92BF92EB
:1027E000CF92DF92EF92FF920F931F93CF93DF93DD
:1027F000EC015B014A0169017801E881F9810284F9
:10280000F385E02D0995C80CD91C860101501109EA
:10281000E881F9810488F589E02D9501A401B501CD
:10282000CE010995E881F9810688F789E02DCE016E
:10283000DF91CF911F910F91FF90EF90DF90CF909C
:10284000BF90AF909F908F900994EF92FF920F935B
:102850001F93DC01ED91FC9100A0F1A1E02D099501
:102860001F910F91FF90EF9008950F931F93DC013C
:10287000ED91FC91068CF78DE02D09951F910F913C
:1028800008950F931F93DC01ED91FC91048CF58D5D
:10289000E02D09951F910F910895DC01ED91FC91B8
:1028A0000084F185E02D09942F923F924F925F9220
:1028B0006F927F928F929F92AF92BF92CF92DF9250
:1028C000EF92FF920F931F93CF93DF9300D000D02E
:1028D00000D0CDB7DEB73C016A013E832D83FC8278
:1028E000EB825801A41AB50AB7FE03C0B194A194B3
:1028F000B1088D809E80861A970A97FE03C0919436
:10290000819491088A149B045CF0902F812F0D8193
:102910001E819D838E839C2D8D2D6B01692F782FB9
:102920000C151D055CF09D818E817E836D83692F62
:10293000782F902F812F8601C92ED82E1601201AAC
:10294000310A2B012D813E81421A530A57FE03C0E2
:10295000519441945108710137FE03C03FEFE31ACF
:10296000F30AF594E7948D819E81861797075CF5AD
:10297000A1E0B0E0BA83A983C016D1064CF1D3011F
:10298000ED91FC910484F585E02D2B813C81A8011B
:102990006D817E818A149B041CF04D815E81B8019B
:1029A000C3010995E418F508F7FE0AC02D813E81A0
:1029B00089819A81280F391F3E832D83E20CF31CF5
:1029C0000F5F1F4FD9CF2FEF3FEF3A832983D4CF2B
:1029D00026960FB6F894DEBF0FBECDBFDF91CF9124
:1029E0001F910F91FF90EF90DF90CF90BF90AF902D
:1029F0009F908F907F906F905F904F903F902F901F
:102A00000895089590E080E00895089581E00C9481
:102A1000CA06FC0187A987FD06C0A38DB48D9C91D1
:102A200081A9892B8C9308958EBD00000DB407FEFB
:102A3000FDCF8EB508958CBD9DBD0895FC0125A9DF
:102A4000211104C081A192A10C941B1508950F932C
:102A50001F93CF93DF93EC018B010E941E158FA96A
:102A600087FD06C0EB8DFC8D80819AA98923808328
:102A7000ED8DFE8D80819CA98923808366E3CE0144
:102A80000E946809ED8DFE8D80819BA9892B808332
:102A90008DA9F801823091F06081CE010E94680911
:102AA0008FA987FD06C0EB8DFC8D808199A9892BAC
:102AB0008083DF91CF911F910F91089588A988237A
:102AC00059F360817181CE010E942709E9CFCF932C
:102AD000DF931F92CDB7DEB7FC0119826370668B5E
:102AE000DC01AD5BBF4F2C9130E011968C9190E0F2
:102AF000623031F06330C9F0613081F040EC4983DD
:102B000032AF21AF94AF83AFBE016F5F7F4FCF0174
:102B10000E9427150F90DF91CF91089540EA4983D5
:102B200034AF23AF92AF81AFEFCF40E6F8CF0F9332
:102B30001F93CF93DF931F92CDB7DEB7FC011982AD
:102B40006370668BDC01A85BBF4F2D913C911197A0
:102B500012968D919C916230D1F1633009F440C09E
:102B60008F010C5B1F4F6130F9F040EC4983AF01DE
:102B70004D5B5F4FDA014C9150E052AF41AFD8014D
:102B80004C9150E054AF43AF3187208793878287C1
:102B9000BE016F5F7F4FCF010E9427150F90DF911D
:102BA000CF911F910F91089540EA4983D8014C912C
:102BB00050E052AF41AFDF01AA5BBF4F4C9150E0F4
:102BC00054AF43AF3387228791878087E1CFDF01FE
:102BD000AA5BBF4F4C9150E052AF41AF1196D0CF9E
:102BE00040E64983DF01A95BBF4F4C9150E052AFF3
:102BF00041AF1497E3CFCF93DF93EC010E941E15F2
:102C00008FA987FD06C0EB8DFC8D80819AA9892351
:102C10008083DF91CF9108952F923F924F925F92E0
:102C20006F927F928F929F92AF92BF92CF92DF92DC
:102C3000EF92FF920F931F93CF93DF9300D000D0BA
:102C400000D0CDB7DEB71C012B015C834B8359014B
:102C50001E830D8387E696E00E94FB158D819E8181
:102C6000880F991F9A8389838B809C80881A990A80
:102C70006D807E80620C731C87019401A201B301F8
:102C800087E696E00E94A20D6501C40CD51CA60142
:102C9000415051099401B30187E696E00E94A20DCC
:102CA00089819A81A81AB90A8D819E81480E591E80
:102CB0009501A201B10187E696E00E94970C8B81F5
:102CC0009C81280E391EB101615071099501A20144
:102CD00087E696E00E94970C21E04D815E81B2016B
:102CE000C3010E947D0E8D819E81281A390A91E0D0
:102CF000291A310822E04D815E81B201C1010E9492
:102D00007D0E8D819E81C81AD90A91E0C91AD10819
:102D100024E04D815E81B601C1010E947D0E28E054
:102D20004D815E81B601C3010E947D0E87E696E06B
:102D300026960FB6F894DEBF0FBECDBFDF91CF91C0
:102D40001F910F91FF90EF90DF90CF90BF90AF90C9
:102D50009F908F907F906F905F904F903F902F90BB
:102D60000C9409154F925F926F927F928F929F926F
:102D7000AF92BF92CF92DF92EF92FF920F931F9389
:102D8000CF93DF933C01EB015A01690187E696E09E
:102D90000E94FB15230188E0480E511C950120512B
:102DA000310978018601AE01B20187E696E00E9402
:102DB000E20D81E1C81AD1082896C501860D971D3C
:102DC000860121E048E050E0BE0109970E94D80C3E
:102DD00022E048E050E0BE01C2010E94D80C87E624
:102DE00096E0DF91CF911F910F91FF90EF90DF90D0
:102DF000CF90BF90AF909F908F907F906F905F909B
:102E00004F900C940915CF93CFB7F89480918A0115
:102E1000811127C0E3E7FAE08491E5E5FAE09491B7
:102E2000E82FF0E0EE0FFF1FE35EF54FA591B491A0
:102E3000EC91E92321F461E08AE00E949C0661E0C4
:102E40008AE00E94E7068CB580618CBD8CB58064F9
:102E50008CBD61E08DE00E94E70661E08BE00E949E
:102E6000E70680918A018F5F80938A01CFBFCF915F
:102E700008958F929F92AF92BF92CF92DF92EF927E
:102E8000FF92CF93DF939B01AC01E091B405CE2F6D
:102E9000D0E089E0E89FF0011124E056FA4F8580E8
:102EA0009680A780B084C501B4010E9467356B018C
:102EB0007C0120E030E040EA51E40E94D33587FDF8
:102EC00032C020E030E04CE152E4C701B6010E947C
:102ED000FC3618167CF1A5019401C701B6010E94C9
:102EE00066359F772FE632E143E85AE30E94FC36CD
:102EF00087FD0EC089E08C9FF0018D9FF00D11249D
:102F0000E056FA4FC582D682E782F08610922501FC
:102F1000DF91CF91FF90EF90DF90CF90BF90AF9077
:102F20009F908F900895C12CD12C90EAE92E91E4C6
:102F3000F92ED1CFC12CD12C8CE1E82E82E4F82ED1
:102F4000CACF4F925F926F927F92AF92BF92CF9211
:102F5000DF92EF92FF921F93CF93DF93EC016B010F
:102F60007A01FB011082FA01108288810E947306A7
:102F70005C0111E0892B09F410E00E947B072A8193
:102F8000211729F01A836B837C838D839E834B806A
:102F90005C806D807E809B01AC0124193509460957
:102FA000570929013A013FE14316510461047104B4
:102FB000F8F029812117E1F01983AB28B1F46F8370
:102FC000788789879A871B8681E0F6018083DF9165
:102FD000CF911F91FF90EF90DF90CF90BF90AF9077
:102FE0007F906F905F904F90089581E0F701EECF52
:102FF00080E0EDCF0F931F9320911002222309F15F
:1030000020919F052223F9F000916C0510916D0528
:1030100020916E0530916F05DC01CB01801B910B77
:10302000A20BB30B893522E09207A105B10568F028
:103030008D3D9540A105B10550F084E01F910F91A1
:10304000089580E0FBCF81E0F9CF82E0F7CF83E005
:10305000F5CF0F931F9320919F052223A9F0009194
:103060006C0510916D0520916E0530916F05AB01D7
:10307000BC01401B510B620B730B21E04D3D5540D1
:103080006105710508F020E0822F1F910F910895CE
:1030900061E08AE00E949C0661E084E00C949C065A
:1030A00061E08AE00E949C0661E086E00E949C0646
:1030B00061E087E00C949C0661E084E00E949C063D
:1030C00061E086E00E949C0661E087E00C949C062B
:1030D000FC01680F791F8FEF9FEF2191922728E065
:1030E000AC01880F991F57FF04C031E2832730E1FC
:1030F00093272150A9F7E617F70779F70895CF929C
:10310000DF92EF92FF92FC01C12C92E1D92E9AE757
:10311000E92EF12C90E04C155D056E057F0540F41D
:10312000F694E794D794C7949F5F9630A1F797E001
:103130002C702065392F3695232B20839095917024
:103140009183FF90EF90DF90CF900895CF93DF931E
:1031500000D0CDB7DEB74091B7065091B806609168
:10316000B9067091BA0620E0CE0101960E947F1840
:1031700089819A810E941B1580E00E94CA060F90E7
:103180000F90DF91CF910895CF93DF93D82FC62F63
:103190000E94A6188D2F80620E9414158093BB0692
:1031A0008C2F0E941415DF91CF910C94061560911D
:1031B000C70661FD0AC062606093C70680E00E9496
:1031C000C4188BE19EE40197F1F70895CF93C82FBF
:1031D0000E94A6188C2F0E9414158093BB068FEFB7
:1031E0000E941415C82F0E9406158C2FCF910895A8
:1031F000CF93DF93EC0186E00E94E618877D22974B
:10320000E1F045E550E060E070E04093CE06509379
:10321000CF066093D0067093D106C0E0C82B6C2F08
:1032200086E00E94C41886E00E94E61891E0C81368
:1032300090E0892FDF91CF9108954BE950E060E055
:1032400070E04093CE065093CF066093D006709303
:10325000D106C0E2E3CFFF920F931F93CF93DF938A
:10326000C82FF62E072F142F0E94A6188C2F8062CD
:103270000E9414158093BB06CF2DD02F115020F043
:1032800089910E941415FACFDF91CF911F910F9170
:10329000FF900C9406150E94D7186091C7066160D4
:1032A0006093C70680E00E94C41860E787E00E9430
:1032B000C41881E00E94DE068091C906882339F097
:1032C0004091CB066DEB76E08AE00C942B1982E0FE
:1032D0000E94E618E5E4FAE0E49121E030E001C064
:1032E000220FEA95EAF72095622F682382E00E9478
:1032F000C4181092C9060895CF93C82F0E94A6182B
:103300008C2F0E9414158093BB06CF910C94061548
:1033100081EE0E947C198091BB0608950E94A61838
:1033200080E50E9414158093BB0683E70E94141564
:103330000C9406158F929F92AF92BF92DF92EF92FC
:10334000FF920F931F93CF93DF9300D0CDB7DEB7DB
:103350008C014A015B0181149104A104B10439F488
:10336000812C28E4922E28EEA22EBB24B394F801DF
:10337000FF9680829182A282B38281E2F80185AFBA
:1033800080E286AFEB5BFF4FF080F80187A987FDF5
:1033900008C061E00E94E70661E0F80187A90E9489
:1033A0009C0661E0F80180AD0E94E70661E0F8014B
:1033B00080AD0E949C06F80185A981114CC02F2D7B
:1033C000B501A401CE0101960E947F1889819A81DE
:1033D000F80192A381A38F2D90E0B0E0A0E083A339
:1033E00094A3A5A3B6A30E940317F80186A987FD9D
:1033F00024C061E00E94E70661E0F80186A90E940E
:103400009C0664E670E080E090E00E94480760E07F
:10341000F80186A90E949C0664E670E080E090E0D6
:103420000E94480761E0F80186A90E949C0668ECAA
:1034300070E080E090E00E9448070F900F90DF91CD
:10344000CF911F910F91FF90EF90DF90BF90AF90C1
:103450009F908F90089599E6E92E9AE0F92ED12C4D
:103460008130D9F461E082A50E94E70660E0F801AE
:1034700082A50E949C0661E0F80184A50E94E706EF
:1034800060E0F80184A50E949C06F80183A587FDF1
:10349000ACCF60E00E94E706A8CFF7018491E82F47
:1034A000F0E0EE0FFF1FE15AF54F85919491F8017E
:1034B000278D30A12817390741F461E08D2D0E9436
:1034C000E70660E08D2D0E949C06D394FFEFEF1A73
:1034D000FF0A84E1D812E1CF61E0F80186A50E94DD
:1034E000E70661E0F80186A50E949C06F80187A521
:1034F00087FD7BCF61E00E94E70661E0F80187A5C8
:103500000E949C0672CFFC0101900020E9F73197E0
:10351000AF01481B590BBC0187E696E00C94870766
:103520000E94EC371F93CF93DF9385ED8093BC000F
:1035300080918E0190918F01A0919001B0919101A5
:103540000796A11DB11D23E0B695A7959795879580
:103550002A95D1F72091BC0024FD03C01092D6011A
:1035600052C040918E0150918F01609190017091F5
:103570009101452B462B472B69F30097A105B10517
:1035800041F02AE22A95F1F700C00197A109B1099B
:10359000E1CF80918D01C1E0C0938C01882399F126
:1035A000D091B8001091BA008091BC008A7B8093C2
:1035B000BC0060E082E10E949C0660E083E10E9422
:1035C0009C061092D601C093D8011092D70161E0F9
:1035D00082E10E949C0661E083E10E949C0680914A
:1035E000B9008E7F8093B9008091B9008D7F809360
:1035F000B90088E48093B80085E48093BC00109300
:10360000BA00D093B800DF91CF911F9108950F9326
:103610001F93CF93DF93EC018B01BA010150110985
:10362000A8010E943B30C00FD11F1882DF91CF91BB
:103630001F910F9108958F929F92AF92BF92CF9258
:10364000DF92EF92FF920F931F93CF93DF93CDB74B
:10365000DEB760970FB6F894DEBF0FBECDBF982ED1
:1036600064EAC62ED12C811103C058E0C52ED12C9E
:103670008090B40530E1E32E34E8F32E46ECA42E1E
:1036800048E1B42E89100FC08091B30590EEE92E69
:10369000FF24FA94AA24AA9427E0B22E811103C031
:1036A0008FE1A82EB12C0E94501810E000E02AE80B
:1036B00030E044E950E062E270E0C6010E94B216D8
:1036C00008E010E02AE830E044E950E062E270E00F
:1036D000C6010E940C16850126E130E042E950E067
:1036E00063E270E0C60101960E94B216F12CE12C53
:1036F00006E710E020E930E044E350E0B6016E5FF9
:103700007F4F87E696E00E941F0B760188E0E80E67
:10371000F11C00E114E824E830E040E750E0B70194
:1037200087E696E00E94260C80E2891005C0809111
:10373000B30581118CC08EE3898380E28A834EEECB
:1037400059E0911002C042EF59E06EE070E0CE0106
:1037500003960E94071B82E080937B0680937C0681
:103760008FEF9FEF9093780680937706B0927A065A
:10377000A0927906F0927406E092730687E290E0D8
:103780009093760680937506CE0101960E94831A67
:1037900081E080937B0680937C0680E194E890939F
:1037A0007A0680937906909378068093770676015F
:1037B0008AE0E80EF11CF0927406E092730688E746
:1037C00090E090937606809375068DEA91E00E94D2
:1037D0005F12F0927406E092730688E890E090938E
:1037E00076068093750689EA91E00E945F12F09256
:1037F0007406E092730608E910E0109376060093D1
:10380000750685EA91E00E945F1282E6C80ED11C1F
:10381000D0927406C09273061093760600937506D4
:1038200081EA91E00E945F1260960FB6F894DEBFC5
:103830000FBECDBFDF91CF911F910F91FF90EF9001
:10384000DF90CF90BF90AF909F908F9008958AE2C5
:1038500073CFCF92DF92EF92FF920F931F93CF938C
:10386000DF93CDB7DEB760970FB6F894DEBF0FBE1B
:10387000CDBF7C016B01CA01B9018E010F5F1F4FE3
:1038800021E040E00E941D30C801BC010196FB010F
:1038900020812032D1F3F1E0CF1AD108A601C7016F
:1038A0000E940838EC0CFD1CF701108260960FB6E0
:1038B000F894DEBF0FBECDBFDF91CF911F910F9166
:1038C000FF90EF90DF90CF900895AF92BF92CF928C
:1038D000DF92EF92FF920F93CF93DF93EC015B01A6
:1038E00069017A01002331F0CA01B9010E94A137B0
:1038F000882379F04CE951E0B501CE01DF91CF91F9
:103900000F91FF90EF90DF90CF90BF90AF900C940D
:10391000071BA7019601B501CE01DF91CF910F9151
:10392000FF90EF90DF90CF90BF90AF900C94291C48
:103930002F923F924F925F926F927F928F929F92BF
:10394000AF92CF92DF92EF92FF920F931F93CF939C
:10395000DF9300D000D000D0CDB7DEB73C012B0103
:103960001A013A8329831C830B83FE82ED82860130
:10397000FC0182A1882361F080A191A184179507A1
:1039800039F440E250E0C3010E94FA37892BA1F1DB
:103990000E94501874012D813E814B815C816981A8
:1039A0007A8187E696E00E94A40BA0927B06A09203
:1039B0007C06309278062092770690927A06809262
:1039C000790689819A819093740680937306EB81BE
:1039D000FC81F0937606E0937506C2010E94831A7B
:1039E0004FE150E0B201C3010E940838F301178E85
:1039F00031A220A281E082A326960FB6F894DEBF02
:103A00000FBECDBFDF91CF911F910F91FF90EF902F
:103A1000DF90CF90AF909F908F907F906F905F904E
:103A20004F903F902F9008958F929F92AF92CF9298
:103A3000DF92EF92FF920F931F9322E1829F80010A
:103A400011240E5D1F4F23E2829FC0011124912C8F
:103A5000812CAA24A3942CE0C22ED12C3CE2E32E8C
:103A6000FF24F3942AE030E08F5E9D4F0E94981C63
:103A70001F910F91FF90EF90DF90CF90AF909F90AC
:103A80008F900895CF92DF92EF92FF926B017C01AD
:103A9000AC019B010E94A137811126C020E030E0DB
:103AA00048EC52E4C701B6010E9434370E94013746
:103AB000613325E772078105910524F060E375E71E
:103AC00080E090E0DC01CB01803D2AE892072FEFF7
:103AD000A207B20724F480ED9AE8AFEFBFEFFF90A2
:103AE000EF90DF90CF90089580E090E8F8CF1F929C
:103AF0000F920FB60F9211242F933F938F939F93A2
:103B0000AF93BF938091BB059091BC05A091BD057B
:103B1000B091BE053091BA0523E0230F2D3758F53B
:103B20000196A11DB11D2093BA058093BB0590930A
:103B3000BC05A093BD05B093BE058091BF059091D3
:103B4000C005A091C105B091C2050196A11DB11D8E
:103B50008093BF059093C005A093C105B093C205A3
:103B6000BF91AF919F918F913F912F910F900FBE79
:103B70000F901F90189526E8230F0296A11DB11DE6
:103B8000D2CF1F920F920FB60F9211242F933F9313
:103B90004F935F936F937F938F939F93AF93BF9355
:103BA000EF93FF9383EC95E00E94A705FF91EF91BF
:103BB000BF91AF919F918F917F916F915F914F9145
:103BC0003F912F910F900FBE0F901F9018951F924D
:103BD0000F920FB60F9211242F938F939F93EF9311
:103BE000FF93E091D305F091D4058081E091D90550
:103BF000F091DA0582FD1BC090818091DC058F5F1A
:103C00008F732091DD05821741F0E091DC05F0E033
:103C1000ED53FA4F958F8093DC05FF91EF919F91C3
:103C20008F912F910F900FBE0F901F90189580814C
:103C3000F4CF1F920F920FB60F9211242F933F9340
:103C40004F935F936F937F938F939F93AF93BF93A4
:103C5000EF93FF938091B900887F803609F44AC0C2
:103C6000F0F5883209F4A5C018F5803109F499C03F
:103C7000B8F4882309F4F5C0883009F492C0FF91A4
:103C8000EF91BF91AF919F918F917F916F915F91D4
:103C90004F913F912F910F900FBE0F901F9018954D
:103CA000883109F486C0803251F78093D50114C061
:103CB000803409F49BC040F48033B9F38833F9F6BB
:103CC0008093D50185ECAEC0803509F483C088357A
:103CD00009F494C0883499F60E94921AD0CF88399A
:103CE00009F48AC038F5883729F050F4883611F085
:103CF000803729F683E08093D6011092D40155C015
:103D0000883809F479C0803919F0803809F0B7CFC4
:103D10008091D401803208F06FC0E091D40181E03D
:103D20008E0F8093D4018091BB00F0E0EC54FE4FE5
:103D300080833BC0803B39F0D0F4803A09F477C0EF
:103D4000883A09F09CCF84E08093D6011092B301A9
:103D50001092B201F0E0E0E009958091B20181118A
:103D60000FC081E08093B2011092920109C0803CA3
:103D700009F4A8CF883C09F4A5CF883B09F07FCF90
:103D8000E091B30181E08E0F8093B301F0E0EE5635
:103D9000FE4F80818093BB009091B3018091B2016E
:103DA00029C08091FB018093BB0085EC8093BC000F
:103DB00066CF9091FA018091F901981758F5E0913A
:103DC000FA0181E08E0F8093FA01F0E0E752FE4F96
:103DD0008081E9CFE091FA0181E08E0F8093FA01B2
:103DE0008091BB00F0E0E752FE4F80839091FA0192
:103DF0008091F9019817C8F285E8D8CFE091FA01CF
:103E000081E08E0F8093FA018091BB00F0E0E752D1
:103E1000FE4F80838091D80181115ECF81E0809335
:103E2000D70184EA8093BC001092D60128CF85EC9C
:103E30008093BC001092D6018091D401803230F47E
:103E4000E091D401F0E0EC54FE4F10826091D40177
:103E500070E084EB91E0F0E0E0E009951092D4018D
:103E60000ECF1092D50138CF0F931F93CF93DF93CE
:103E7000E3ECF5E01382128288EE93E0A0E0B0E07C
:103E800084839583A683B7838CE491E091838083B8
:103E900085EC90E09587848784EC90E0978786870F
:103EA00080EC90E0918B808B81EC90E0938B828B07
:103EB00082EC90E0958B848B86EC90E0978B868BE0
:103EC000118E128E138E148EE3EBF6E089E082835E
:103ED0008AE0838380E896E9A8E9B0E0848395834B
:103EE000A683B78380E28187158A168A95E0908F32
:103EF00081E0818F128E45E050E060E070E0478FF6
:103F000050A361A372A320E636E031832083A7E6A5
:103F1000B6E013961C921E92129760EF70E0159611
:103F20007C936E93149740E451E017965C934E9304
:103F3000169719967C936E9318971B965C934E93E5
:103F40001A9756961C9256971D961C921E921C9775
:103F50001F961C921E921E9755968C9355975496B9
:103F60008C9354974FEF5FEF53965C934E93529719
:103F700051965C934E93509757968C9357975896BB
:103F80001C9258975A961C921E925997D5961C923D
:103F9000D59788E0D6968C93D69784E0D7968C9365
:103FA000D797D8969C93D897DA961C921E92D99759
:103FB000DC961C921E92DB97DD961C92DD97DE96B6
:103FC0001C92DE971092A6061092A7061092A806E1
:103FD0001092A90690963C932E935F97EEE6FAE036
:103FE000E491F0E0EE0FFF1FE15AF54F85919491B7
:103FF0005E969C938E935D97E0E5FAE08491D3966C
:104000008C93D397EDE6FAE0E491F0E0EE0FFF1F1A
:10401000E15AF54F259134915C963C932E935B9732
:10402000EFE4FAE0E491D196EC93D197E095D29643
:10403000EC93D297E82FE095D496EC93D497109216
:10404000AA061092AB061092AC068EE591E08D9315
:104050009C931092AD061092AE06C4E6D6E00DE039
:10406000088386E08A831CE0198361E00E94E706EA
:1040700061E088810E94E70660E089810E94E7068E
:1040800061E08A810E949C06C1E6D6E0088387E051
:104090008A83198361E00E94E70661E088810E94BB
:1040A000E70660E089810E94E70661E08A81DF918E
:1040B000CF911F910F910C949C06CF93DF93CDB7B6
:1040C000DEB7C359D1090FB6F894DEBF0FBECDBF1E
:1040D000789484B5826084BD84B5816084BD85B5E3
:1040E000826085BD85B5816085BD80916E008160EF
:1040F00080936E0010928100809181008260809395
:104100008100809181008160809381008091800096
:104110008160809380008091B10084608093B100C1
:104120008091B00081608093B00080917A008460BB
:1041300080937A0080917A00826080937A008091E7
:104140007A00816080937A0080917A008068809301
:104150007A001092C10080E090E0A4E1B2E4809384
:10416000A5059093A605A093A705B093A8058093F5
:10417000AE059093AF05A093B005B093B10580E074
:1041800090E0A0ECBFE78093A0059093A105A093D9
:10419000A205B093A3058093A9059093AA05A093C7
:1041A000AB05B093AC051092A4051092AD0561E08B
:1041B00084E00E94E70661E08AE00E94E70661E091
:1041C00086E00E94E70661E087E00E94E70661E082
:1041D00084E00E949C0661E08AE00E949C0661E007
:1041E00086E00E949C0661E087E00E949C060E9497
:1041F000031762E08EE00E94E70662E08FE00E9413
:10420000E70662E080E10E94E7060E9450181092E3
:10421000AC0640E050E0BA0187E696E00E949A19A9
:104220001092AE061092AB061092AD061092AA063E
:1042300080EF90E09093B0068093AF0680E491E029
:104240009093B2068093B106E1EBF6E01491E2EBB5
:10425000F6E0112309F47CC0F4906F0102E0C00E77
:10426000D11C31960491E02EE894E7F887E696E0B9
:104270000E941E1580919E0687FD09C0E09182066E
:10428000F091830680819091990689238083E09143
:104290008406F0918506808190919B068923808316
:1042A0006F2D87E696E00E946809E0918406F09100
:1042B0008506808190919A06892B8083F601912C46
:1042C000812CF12C8E149F04FCF480919C065F01DC
:1042D000823089F480919706882369F0DF016D911F
:1042E0007D915D0187E696E00E942709EFEF8E1A27
:1042F0009E0AF501E7CFBFEFAB1ABB0A649187E6D0
:1043000096E00E946809F2CF80919E0687FD09C061
:10431000E0918206F0918306808190919806892B26
:104320008083F601EE0DFF1D07FF10C07F010FEF28
:10433000E01AF00A649170E06F3F710511F464EFC8
:1043400071E090E080E00E944807F701115081CFB2
:1043500060E087E696E00E94971561E087E696E0C8
:104360000E94971570E060E087E696E00E94511386
:1043700010927E0681E0809325010E945C180E94C5
:1043800003178091B5068F3F09F4CBC09091B60614
:104390009F3F09F4C6C0891741F061E00E94E7061B
:1043A00061E08091B6060E94E70680E00E94DE068A
:1043B00081E00E94CA0665E070E080E090E00E9423
:1043C00048076FE584E00E94C41890E080E00E94F6
:1043D000F8188DE10E94E618182F0E948E198DE1C1
:1043E0000E94E61891E0181390E09093C80681119E
:1043F00046C11092CA0660E08CE10E94C418109277
:10440000CC066FE381E00E94C41863E082E00E9462
:10441000C41880E28093BC0611E16091BC06812F34
:104420000E94C4181F5F1731C1F763E083E00E9448
:10443000C41885E08093CB066CE40E94C41860E742
:1044400087E00E94C41882EE0E947C190E9488199D
:104450006CE080E00E94C41880E00E94E61880931F
:10446000C7060E94D7188091C7068E3009F059C040
:1044700081E08093100286E00E94E618887F682F12
:10448000636086E00E94C41882E090E00E94F81801
:104490006CE685E00E94C41860E081E00E94C418C8
:1044A0008091CA06882351F08DE10E94E618682F9A
:1044B0006D7F8DE10E94C4181092CA064091CB0610
:1044C0006CE271E08AE00E942B194091CB066CE20D
:1044D00071E080E10E942B194091CB0650E06CE224
:1044E00071E082EC96E00E94F137E5EDF6E0849110
:1044F0004091CB0666E271E00E942B1982E00E9497
:10450000E618E6E4FAE0E49161E070E001C0660FCD
:10451000EA95EAF7682B82E00E94C4180E944B19C2
:1045200002C0109210020E947B076C507E4F8F4F8A
:104530009F4F609305027093060280930702909349
:1045400008029E012A583F4FCB57DF4F39832883FB
:10455000C558D040AE0145585F4FC957DF4F59830A
:104560004883C758D040BE016F587F4FC158DF4FB6
:1045700079836883CF57D040CE0185599F4FCF575D
:10458000DF4F99838883C158D040DE01AF59BF4FB8
:10459000CD57DF4FB983A883C358D0401E01B1E582
:1045A0002B0E311CE2961FAEE297AC961FAEAC9775
:1045B000A2961FAEA297F101108219AA1982AE012C
:1045C00045595F4FBE016F587F4F88E191E00E94CF
:1045D000A117A101BE016F597F4F8CE091E00E94AD
:1045E000A1173E01F1E36F0E711C8E010F5F1F4F8B
:1045F0002801A801B30180E091E00E94A1170E9468
:104600007B07AB01BC0180911901811141C08091F0
:10461000010181113DC08091FD019091FE01A091A9
:10462000FF01B0910002892B8A2B8B2B09F472C1F8
:104630008091FC01811137C08091FD019091FE01B4
:10464000A091FF01B09100026A017B01C81AD90A4A
:10465000EA0AFB0AD701C60184389340A105B105D7
:1046600008F461C181E08093FC019091B50591113E
:1046700080E08093B50581E08093250114C0181374
:1046800002C00E948E1960E08DE10E94C418B1CE74
:104690001092FD011092FE011092FF011092000293
:1046A0001092FC0180E090910D01911124C0909135
:1046B0001701911120C00091130110911401209154
:1046C000150130911601401B510B620B730B4C3BD3
:1046D00052406105710578F021E020931701909117
:1046E000B30592279093B3059091B2059260909391
:1046F000B20510922501D1019C91992391F09091DE
:10470000170191110EC091E02091B405211190E0A4
:104710009093B4059091B20592609093B205109277
:10472000250181112AC08091B305882331F1E296D9
:104730008FADE297882379F080910101882359F0A9
:104740006DEC7CEC8CEC9DE30E9439178091B205F6
:1047500081608093B20589A9882379F0809119013D
:10476000882359F06DEC7CEC8CEC9DEB0E943917A2
:104770008091B20584608093B2050E947B072091EE
:104780000902211111C00091050210910602209129
:10479000070230910802601771078207930708F437
:1047A00089C021E0209309020091010210910202C8
:1047B00020910302309104026B017C01C01AD10ADE
:1047C000E20AF30A970186010A3F11052105310526
:1047D00008F470C060930102709302028093030298
:1047E000909304020E94481884E696E00E94F10724
:1047F0006B017C010E94481881E696E00E94F10757
:104800004B015C01A7019601C701B6010E94A137C7
:10481000811114C020E030E040EA51ECC701B6013C
:104820000E94FC36181654F420E030E040EF52E4C9
:10483000C701B6010E94D33587FD77C01092A40549
:10484000C12CD12CA0ECEA2EAFE7FA2EC092A00525
:10485000D092A105E092A205F092A305A5019401D2
:10486000C501B4010E94A137811114C020E030E0DD
:1048700040EA51ECC501B4010E94FC36181654F40C
:1048800020E030E040EF52E4C501B4010E94D3358E
:1048900087FD4FC01092AD05812C912CF0ECAF2E0E
:1048A000FFE7BF2E8092A9059092AA05A092AB05C2
:1048B000B092AC05D0901002DD2009F466C08BE107
:1048C000D3011D928A95E9F70E945C1810E087E1F8
:1048D0000E94E61880FD3FC08091CC0610E00BE1FD
:1048E000811107C01091BC06012F1C3108F00BE1AB
:1048F000101B0E94A61881E60E9414158093BB0627
:1049000073010150D0F08FEF0E941415F7018193CD
:104910007F01F7CF4093FD015093FE016093FF01AB
:104920007093000285CE81E0BECE81E08093A40525
:104930008DCF81E08093AD05B5CF115020F08FEF82
:104940000E941415FACF0E94061560E487E00E94C9
:10495000C4181D2DBCCF1123C1F0F9A8F1E0FF163A
:1049600009F4FBC08091680590916905A0916A05E2
:10497000B0916B050196A11DB11D809368059093C0
:104980006905A0936A05B0936B050E947B07AB0194
:10499000BC01DD2009F481C180910C0290910D02CF
:1049A000A0910E02B0910F026A017B01C81AD90AC8
:1049B000EA0AFB0AD701C60186399105A105B105AE
:1049C00008F46BC140930C0250930D0260930E02E9
:1049D00070930F0284E1D2011D928A95E9F78091CC
:1049E0000A0290910B02019690930B0280930A02A7
:1049F0009B838A834C835D836E837F836091A00554
:104A00007091A1058091A2059091A3050E94421D7D
:104A1000998788876091A9057091AA058091AB0557
:104A20009091AC050E94421D9B878A876091A505E5
:104A30007091A6058091A7059091A8050E94421D3E
:104A40009D878C876091AE057091AF058091B00510
:104A50009091B1050E94421D9F878E878091A40589
:104A6000882311F081E0888B8091AD05882319F0AF
:104A700088898260888B8091B305898B9091B40579
:104A8000913011F48260898B8091B2058A8B81E02C
:104A9000898364E170E0C2010E9468189C8B8B8B53
:104AA00084E1F201A0E7B5E001900D928A95E1F76B
:104AB0000E945C1880E00E94DE068091CE069091F4
:104AC000CF068230910538F0880F991F880F991F03
:104AD00005970197F1F78091CA0681110E94881904
:104AE0006091C7066E7F6093C70680E00E94C4187D
:104AF0004091CB0662EC76E08AE00E942B1982E0BE
:104B00000E94E618E5E4FAE0E49161E070E001C09B
:104B1000660FEA95EAF7682B82E00E94C41880913C
:104B2000CC0610E004E1811107C01091BC06012FF2
:104B3000153108F004E1101B0E94A61880EA0E94BB
:104B400014158093BB067201015008F44AC0F701A6
:104B500081917F010E941415F7CF8BE1FE01F19640
:104B6000D20101900D928A95E1F70A8D1B8D1B8E63
:104B70001A8E6BE170E0C2010E94681808171907CD
:104B800009F0F0CE8BE1FE01F196A4E8B5E00190CA
:104B90000D928A95E1F7F0929F050E947B07609342
:104BA0006C0570936D0580936E0590936F058AA9CF
:104BB0009BA99093940380939303809164059091B3
:104BC0006505A0916605B09167050196A11DB11D0F
:104BD0008093640590936505A0936605B09367057F
:104BE000D4CE115020F080E00E941415FACF0E941C
:104BF000061581E00E94DE060E947B076B017C01A6
:104C00008FEF0E947C198091BB06807321F50E9472
:104C10007B076C197D098E099F0960367105810536
:104C2000910570F381E08093CD060E944B1980912D
:104C3000600590916105A0916205B09163050196B0
:104C4000A11DB11D8093600590936105A09362053D
:104C5000B093630520C080E00E94DE0660E787E035
:104C60000E94C4188091BB0684FDDEC20E944B19CD
:104C700080915C0590915D05A0915E05B0915F0506
:104C80000196A11DB11D80935C0590935D05A093D5
:104C90005E05B0935F051092B2050E947B070091FC
:104CA000B6051091B7052091B8053091B9056B0193
:104CB0007C01C01AD10AE20AF30A97018601043680
:104CC00011052105310508F470C56093B605709390
:104CD000B7058093B8059093B90580912501882385
:104CE00009F427C18091B5058111A1C20E94501815
:104CF00070E060E087E696E00E94511354E8E52EEC
:104D000050E1F52E0EE110E020E431E050E040E00B
:104D100070E060E087E696E00E941F0B00E114E877
:104D200020E431E04EE150E070E060E087E696E09C
:104D30000E94260C82E080937B0680937C068FEF96
:104D40009FEF90937A0680937906909378068093EC
:104D500077068AE090E0909374068093730687E06C
:104D600090E0909376068093750683E197E00E9429
:104D70005F12BB24B394B0927B06B0927C0660E1D4
:104D8000C62E64E8D62ED0927A06C0927906D092CA
:104D90007806C09277060CED10E01093740600932D
:104DA000730684E090E090937606809375068EE01B
:104DB00097E00E945F12109374060093730681E1DE
:104DC00090E0909376068093750689E097E00E94C4
:104DD0005F1270E1E72E74E8F72E08E010E02AE891
:104DE00030E044E950E062E270E088E090E00E9448
:104DF0000C162AE830E044E950E062E270E084EA10
:104E000090E00E940C1606E010E024E330E040E35E
:104E100051E064EB70E088E090E00E940C16B092E4
:104E20007B06B0927C06D0927A06C0927906D09228
:104E30007806C092770680E190E0909374068093A4
:104E4000730686ED90E090937606809375068AED62
:104E500096E00E945F121092390510925A05109246
:104E6000590510925B0510921605109237051092A5
:104E7000360510923805109295031092B6031092E1
:104E8000B5031092B7031092700310929103109221
:104E9000900310929203E0EDF4E04AE854E024E439
:104EA00034E08EEF93E008EB13E066E175E01082EA
:104EB00011A210A212A2DA011C9291961C921E92CB
:104EC000909792961C92D9011C9291961C921E92D8
:104ED000909792961C92DC011C9291961C921E92C5
:104EE000909792961C92D8011C9291961C921E92B9
:104EF000909792961C92B3964D5D5F4F2D5D3F4FFC
:104F000083960D5D1F4F6E177F0789F6E1E1F2E092
:104F10008FE693E0108211A210A212A2B3968E1710
:104F20009F07C1F78FEF8093240110926F031092B7
:104F300025018091B5058111D2C40E947B07C2571B
:104F4000DF4F688379838A839B83CE58D0409091CA
:104F500024018091B405981307C090916F0380914C
:104F6000B305981709F448C080E00E941B1B81E03C
:104F70000E941B1B8091B405809324018091B3058E
:104F800080936F03E0EDF4E04AE854E024E434E079
:104F90008EEF93E008EB13E0108211A210A212A290
:104FA000DA011C9291961C921E92909792961C92F6
:104FB000D9011C9291961C921E92909792961C92E7
:104FC000DC011C9291961C921E92909792961C92D4
:104FD000D8011C9291961C921E92909792961C92C8
:104FE000B3964D5D5F4F2D5D3F4F83960D5D1F4F17
:104FF000B5E0E631FB0781F6C257DF4F6881798162
:105000008A819B81CE58D0400E94FA17182F45E123
:105010005AE0853040F4E82FF0E0EE0FFF1FE25C2D
:10502000FE4F408151816AE070E0CE018F599F4F61
:105030000E94071B8091B30540EE58E0811102C029
:105040004BED58E065E070E0CE018A589F4F0E941A
:10505000071B8091B40542EF59E0882311F04EEE12
:1050600059E065E070E0CE018F589F4F0E94071B0A
:10507000115040E058EF133040F4E12FF0E0EE0F14
:10508000FF1FE85CFE4F4081518104E8802E00E163
:10509000902EAA24A3948AE0C82ED12C9EE5E92E56
:1050A000F12C04E010E02CED30E0BE016F597F4F91
:1050B00089E395E00E94981CC058DF4FE881C058F2
:1050C000D040EF93C158DF4FF881CF57D040FF93C6
:1050D000CA57DF4FC880C658D040CF92CB57DF4F5A
:1050E000D880C558D040DF9285ED98E09F938F938C
:1050F0001F9280E28F937F926F920E944A300FB688
:10510000F894DEBF0FBECDBF8091B3054FEF57E0DF
:10511000811102C04FEF5FEFA4E88A2EA0E19A2E22
:10512000AA24A394BAE0CB2ED12C1EE5E12EF12CBB
:1051300001E110E02CED30E0B30186E195E00E9442
:10514000981C20EA35E0C457DF4F39832883CC58B8
:10515000D040B12CC657DF4F19821882CA58D040B0
:105160002E0131E3430E511C48E050E0CE56DF4F94
:1051700059834883C259D04080919F05882309F400
:10518000EBC060918B0570918C05BB2021F0609184
:105190008D0570918E05611580E8780709F4DCC0F3
:1051A000072E000C880B990B0E944C3620E030E053
:1051B00048EC52E40E94D8356B017C01AC019B01A4
:1051C0000E94A1378111C8C080916C0590916D0536
:1051D000A0916E05B0916F05C257DF4F088119810C
:1051E0002A813B81CE58D040081B190B2A0B3B0B60
:1051F000D901C80189359240A105B10508F487C0DD
:10520000C257DF4F688179818A819B81CE58D04017
:105210000E942918882309F49FC012E0C757DF4F66
:105220001883C958D04093C00E948819FECC0E94B0
:10523000501870E060E087E696E00E94511344E861
:10524000E42E40E1F42E08E110E020E431E050E0EB
:1052500040E070E060E087E696E00E941F0B82E08D
:1052600080937B0680937C068FEF9FEF9093780668
:105270008093770684E890E190937A06809379068C
:105280008AE090E0909374068093730685E090E046
:1052900090937606809375068AE397E00E945F12EA
:1052A00081E080937B0680937C0680E194E8909374
:1052B0007A068093790690937806809377068CE03F
:1052C00090E0909374068093730680EE90E0909344
:1052D0007606809375068EE197E00E945F12E1E109
:1052E000F2E08FE693E0108211A210A212A2B39610
:1052F0008E179F07C1F71BCEBB24B39464EA70E0FE
:10530000CE56DF4F79836883C259D04035CF809124
:1053100097059091980520E130E0BB2011F020E244
:1053200030E028233923232B09F072C620E034E033
:10533000BB2011F020E038E082239323892B09F46D
:1053400071C623E0C757DF4F2883C958D04020EEED
:10535000622E77247A9402C1C457DF4FA881B981A5
:10536000CC58D04014968C911497882309F4E3C04C
:10537000CD90DD90ED90FC90A7019601C701B6019C
:105380000E94A137882309F4DFC0B1E0C757DF4F7F
:10539000B883C958D040FCE76F2EFDE77F2E4CE460
:1053A00057E060E170E0CE0101960E94071BC757ED
:1053B000DF4FE881C958D040E15040E557E0E33085
:1053C00038F4F0E0EE0FFF1FEE5CFE4F408151819C
:1053D00066E070E0CE0185599F4F0E94071B912C1B
:1053E000812C23E0A22E34E2C32ED12C40E8E42EFF
:1053F000F12C04E410E0CE56DF4F28813981C259E8
:10540000D040265F3F4FA301BE016F5F7F4FC6575D
:10541000DF4F88819981CA58D04080539B4F0E94AA
:10542000981CCE56DF4F28813981C259D0402E5961
:105430003F4FC757DF4F4881C958D040433009F428
:10544000ADC0423009F4ADC0413009F0ADC04CE709
:105450005DE7912C812CAA24A3940AE0C02ED12CC4
:1054600088E2E82EF12C08E910E0BE0165597F4F73
:10547000C657DF4F88819981CA58D04086579B4FC5
:105480000E94981CC457DF4FA881B981CC58D040E6
:1054900015962D913D914D915C91189760E270E0C9
:1054A000C2010E94291CCE56DF4F68807980C25904
:1054B000D040B4E26B0E711C90E3E92EF12C08E7AA
:1054C00010E093014FEF5FEFB201C657DF4F8881C5
:1054D0009981CA58D0408C5B9B4F0E94981C809148
:1054E0009F05882309F4DCC460918F0570919005B5
:1054F000BB2021F0609191057091920520E030E091
:1055000040EC5FE76115E0E87E0771F0072E000CC4
:10551000880B990B0E944C3620E030E048EC52E4B6
:105520000E94D8359B01AC0101E060E270E0C2014D
:105530000E94651CBCC4C757DF4F1882C958D040B1
:10554000612CE8EF7E2E2BCFE1E0C757DF4FE883D9
:10555000C958D0407CE7672E7DE7772EA7019601DA
:105560006CE070E0C1010E94291C3F922F9267E419
:10557000C62E67E0D62EDF92CF921F9280E18F93E6
:1055800001E010E00C0F1D1F1F930F930E944A3083
:105590000FB6F894DEBF0FBECDBF09CF40EE57E087
:1055A00058CF40EE5FEF55CF40E058EF52CF40E18B
:1055B00054E8B1C44AEC58E060E270E0C2010E94D5
:1055C000071B61961FAE619780919F05882349F064
:1055D00081E0B11082E09091990589234FEF57E067
:1055E00011F44FEF5FEF912C812CAA24A394FAE0E1
:1055F000CF2ED12CAAE3EA2EF12C08E910E093017A
:10560000B201C657DF4F88819981CA58D04088546B
:105610009C4F0E94981CC457DF4F68817981CC58F9
:10562000D040675F7F4FC457DF4F79836883CC5882
:10563000D040C657DF4F88819981CA58D0408396A1
:10564000C657DF4F99838883CA58D040BA1054CECA
:105650000E947B070E94FA1790919F052091970561
:1056600030919805911102C030E020E043E858E005
:10567000882329F0843009F0D8C043E658E060E27E
:1056800070E0C2010E94071B40E058EF912C812C72
:10569000AA24A3947CE0C72ED12CE0E2EE2EFF24B6
:1056A000F3940EEB10E020E130E0B20185E993E0E5
:1056B0000E94981C80919F05C12CD12C76018823D3
:1056C00031F0C0909B05D0909C05F12CE12CC701D6
:1056D000B6012CE330E040E050E00E94A6379F93F3
:1056E0008F937F936F93C701B60120E13EE040E0C6
:1056F00050E00E94A637122F032FF42EE52E2CE344
:1057000030E040E050E00E94A6375F934F933F9314
:105710002F93EF92FF920F931F9385E998E09F9349
:105720008F931F9280E18F933F922F920E944A3075
:105730003F922F9280915F058F9380915E058F93AA
:1057400080915D058F9380915C058F938091940388
:105750008F93809193038F9387EA98E09F938F9321
:105760001F9280E28F93DE0111963D01BF93AF93AC
:105770000E944A300FB6F894DEBF0FBECDBF912C09
:10578000812CAA24A3945CE0C52ED12C60E2E62EE5
:10579000FF24F3940AEC10E020E130E040E154E80B
:1057A000B30180E793E00E94981C80E090E0892B91
:1057B00011F40C94D2220E943606882311F40C9422
:1057C000BC220E9400000C94B32281E0B11082E060
:1057D0009091990589234FEB58E009F4E0C364E008
:1057E00070E0CE0185589F4F0E94071BC857DF4FBE
:1057F0002881C858D0402F93C957DF4F3881C758E8
:10580000D0403F933F922F9282EC98E09F938F93EA
:105810001F9280E28F935F924F920E944A300FB6A0
:10582000F894DEBF0FBECDBFCCCE47E458E0813048
:1058300009F4E3C341E358E021FD21CF43E158E0FF
:1058400020FD1DCF4EEF57E024FD19CF4AEE57E063
:1058500025FD15CF46ED57E022FD11CF43EC57E073
:1058600023FD0DCF22273C7048EA57E0232B09F097
:10587000C4C31091A405112381F020E030E044E27C
:1058800052E46091A0057091A1058091A2059091CC
:10589000A3050E94FC3687FF15C00091AD050023CB
:1058A00009F4B3C320E030E044E252E46091A9057A
:1058B0007091AA058091AB059091AC050E94FC36D1
:1058C00087FD75C34DE857E0DACE44E557E060E266
:1058D00070E0C2010E94071B40EE57E0D7CE0E9445
:1058E0007B076B017C010E94FA1745E15AE0853085
:1058F00040F4E82FF0E0EE0FFF1FE25CFE4F408126
:1059000051816AE070E0CE018F599F4F0E94071BC2
:105910008091B5054DEF59E0882311F047EF59E02C
:1059200066E070E0CE0185599F4F0E94071BCE575D
:10593000DF4FF881C258D040FF93CF57DF4F088127
:10594000C158D0400F93CC57DF4F1881C458D04076
:105950001F93CD57DF4F2881C358D0402F9382E04B
:105960009AE09F938F931F9280E38F935F924F9261
:105970000E944A30C701B6010E94FA1781500FB643
:10598000F894DEBF0FBECDBF40E058EF833040F447
:10599000E82FF0E0EE0FFF1FE85CFE4F40815181E1
:1059A000B20180E00E94141D8091B40542EF59E0DD
:1059B000882311F04EEE59E065E070E0CE018F587B
:1059C0009F4F0E94071B8091B30540EC59E0811165
:1059D00002C04CEB59E064E070E0CE018A589F4F62
:1059E0000E94071B8091B2051F928F93CA57DF4F09
:1059F0005881C658D0405F93CB57DF4F6881C55858
:105A0000D0406F93C058DF4F7881C058D0407F930B
:105A1000C158DF4F8881CF57D0408F9382ED99E0F6
:105A20009F938F931F9210E31F935F924F920E9458
:105A30004A304FEF5FEFB20181E00E94141D2091C8
:105A4000A0053091A1054091A2055091A3050091B8
:105A5000A4056CE070E0C1010E94651C2091A905BD
:105A60003091AA054091AB055091AC050091AD0570
:105A70006CE070E0C3010E94651C7F926F923F92C0
:105A80002F9283EC99E09F938F931F921F935F92C5
:105A90004F920E944A300FB6F894DEBF0FBECDBFC2
:105AA0008091A405882331F08091AD054FEF5FEF21
:105AB000811102C040EE5FEFB20182E00E94141D2E
:105AC0002091A5053091A6054091A7055091A80504
:105AD0006CE070E0C1010E94291C2091AE0530915C
